:1000000048930320F1FB000019FA0000EDFB00000B
:10001000EDFB0000EDFB0000EDFB0000EDFB000040
:1000200000000000000000000000000041C30000CC
:10003000EDFB00000000000059C30000C1C3000038
:1000400085E0000029E4000085E0000085E0000074
:10005000A9D100000DD1000039D2000081D20000EA
:100060004DF3000029DB000069DC00005DDD0000CD
:1000700025DE000085E0000029E4000029E40000FE
:1000800029E40000A9D100000DD1000039D2000000
:1000900081D2000029DB000069DC00005DDD00008A
:1000A00025DE000085E0000029DB000069DC00009F
:1000B0005DDD000025DE000085E00000A9D1000024
:1000C0000DD1000039D2000081D2000000000000F4
:1000D0000000000000000000000000000000000020
:1000E0000000000000000000000000000000000010
:1000F0000000000000000000000000000000000000
:1001000000000000000000000000000000000000EF
:1001100000000000000000000000000000000000DF
:1001200000000000000000000000000000000000CF
:1001300000000000000000000000000000000000BF
:1001400000000000000000000000000000000000AF
:10015000000000000000000000000000000000009F
:10016000000000000000000000000000000000008F
:10017000000000000000000000000000000000007F
:10018000000000000000000000000000000000006F
:10019000000000000000000000000000000000005F
:1001A000000000000000000000000000000000004F
:1001B000000000000000000000000000000000003F
:1001C000FFFFFFFFFFFFFFFFFFFFFFFFFFFFFFFF3F
:1001D000FFFFFFFFFFFFFFFFFFFFFFFFFFFFFFFF2F
:1001E000FFFFFFFFFFFFFFFFFFFFFFFFFFFFFFFF1F
:1001F000FFFFFFFFFFFFFFFFFFFFFFFFFFFFFFFF0F
:100200000348044B834202D0034B03B118477047A5
:10021000200400202004002000000000064B0749B5
:10022000C91A891048BF0131491003D0044B0BB1E2
:1002300001481847704700BF200400202004002018
:100240000000000010B5064C237843B9FFF7D8FF33
:10025000044B13B10448AFF300800123237010BD99
:100260004004002000000000D075020008B5054BD6
:100270001BB105490548AFF30080BDE80840FFF712
:10028000CDBF00BF0000000044040020D075020074
:10029000D1F81C2638B50C46054652B19368C3F513
:1002A000AF61012905DDD1180D7401330020936081
:1002B00038BD204600F000FF18B1D4F81C26936822
:1002C000F1E74FF0FF3038BD88B10EB400B5037AC6
:1002D0000246042B82B005D004AB03980449019375
:1002E00002F08AF902B05DF804EB03B07047704782
:1002F00091020000054B01E0984205D01B68002BDD
:10030000FAD14FF0FF307047006A70475C0400205C
:1003100038B5124C246844B1A3421D4602D107E00F
:10032000A54205D02468002CFAD16FF47B7038BD4B
:1003300002FB01F12B6A2C69E41A8C4228BF0C469F
:100340000CB9204638BDE968224619441AF093F9E1
:100350002B6A204623442B6238BD00BF5C0400207A
:1003600010B51C4601F06EFE064B1A6812B905E086
:1003700012681AB19442FBD1002010BD6FF47B705B
:1003800010BD00BF5C040020124A1368F3B198420C
:1003900010B5044602D108E09C4206D01A461B68FC
:1003A000002BF9D16FF47B7010BD23681360237D9F
:1003B00023B9204600F050FE002010BDE0681AF07E
:1003C0006FF9204600F048FE0020F6E76FF47B70DE
:1003D000704700BF5C04002038B5144B1B6843B164
:1003E0009842044602D107E09C4205D01B68002BCE
:1003F000FAD16FF47B7038BD012A256910D0022A2A
:1004000009D04AB10A4801F063FE00218D4205DBA4
:100410000020216238BD29440029F7DA054838BD9B
:10042000236A19440029F1DAF8E700BF5C040020D0
:1004300050D7010012FCFFFF2DE9F043DFF81C81CB
:100440008DB0D8F80430019391F90030722B3FD170
:100450003F4C0746206830B102AE3246394601F0C3
:10046000D9FC002861D0019C09E0D8F8003002AE28
:100470003946324653F8240001F0CCFC70B32346D1
:10048000013C002BF1D1384601F090FD0446C8B183
:10049000282000F0ADFD8146D0B10023C461436047
:1004A0008360C36003614361836100224846294B36
:1004B000C9F820201968C9F80010C3F800900DB0E1
:1004C000BDE8F083384601F013FD04460028DFD173
:1004D0004FF0000948460DB0BDE8F08305462820DE
:1004E00000F086FD81460028F2D00FCE4FF0000EBE
:1004F00009F1040CACE80F003368CCF80030C9F8FF
:100500001CE0ADB128461449C9F818E007AA01F06B
:1005100081FC0028C9D1394609981AF0E7FB002868
:10052000C3D00123C9F81830BFE72568019CD6E77E
:10053000019B9C42B9D2D8F80030074953F82400F7
:1005400007AAC9F8185001F065FC0028ADD1E2E710
:10055000600800205C0400205CD701005C120200EF
:100560002DE9F04781460E461746154C04F10C085C
:1005700054F804ABBAF1000F06D039463046DAF829
:1005800000309847054660B94445F1D132460D49DF
:100590000D481AF0E3FA0C4807F08CF80B48BDE858
:1005A000F08702464946504600F010FE10B1002088
:1005B000BDE8F0872846DAF80C3098470448EEE7A3
:1005C000000000206CD701006004002014FCFFFF35
:1005D00016FCFFFF10B4D3E901346468A4465DF84B
:1005E000044B604710B50446D0E90103DB68984727
:1005F000034620461C4600F0FBFD204610BD00BF10
:10060000D0E901031B691847D0E901035B6918476A
:1006100030B52B4C8DB02368002B3CD00622012135
:10062000022014F00BFD0346264C013320603AD023
:10063000002204251146244B009515F04FF9009532
:1006400001220021204B206815F048F9102241F2C8
:10065000D06004219FED187B0092CDE9020102AB2E
:100660000D22002120688DED047B15F037F918224A
:100670004FF4A0430DEB02012068ADF81A3014F0DE
:10068000E7FE0F21206815F097FC012200200F4B98
:100690001A600DB030BD14F0B5FD206014F0B2FD4D
:1006A0000B4B1860BAE78E210A4B0B4A0B480FF030
:1006B0007FF900BFAFF30080680B0000020000006C
:1006C000680800207408002064DA01006C0800202B
:1006D0006408002090D7010068DA0100B4D7010057
:1006E000182310B5134A88B0106802A901AA019313
:1006F00015F094FA041E18DB019B182B13D100F09F
:10070000FFFCA8B14460002400F5C86E0DF1080C90
:10071000BCE80F00AEE80F009CE803008EE8030081
:10072000204608B010BD01F08DFC6FF47A74F7E735
:10073000014CF5E77408002016FCFFFFF0B51F49D7
:10074000044691B009301AF0D1FA20B3EC460023E8
:1007500000F10F0104E001333F2B0CF8012B08D00E
:1007600011F9012F0D2AF6D1002240336B4403F812
:10077000402C0023124F0C253E468DF83F3006E0FA
:10078000D6F88410684602F0BBFA0C3E48B9013D29
:10079000F6D211B0F0BD84F83406C4F8380611B0B2
:1007A000F0BD05EB450507EB85073A79BB6884F892
:1007B0003426C4F8383611B0F0BD00BFD4D70100DC
:1007C000D4D90100D0F860162DE9F04111F01008DD
:1007D00006463FD1D0F8183611F008011C4627D044
:1007E0009CB300270DE023682046C6F81836276022
:1007F00000F078FC00F056FDD6F81846C6F86806FA
:100800001CB3D4E90253ED1A03F110012A46002368
:100810007068214415F018FB8542E4D01AF014FBEF
:1008200003680B2B1CD10023E3604046BDE8F08138
:1008300023B19A681B681144002BFAD1304600F0AE
:1008400019FE78B9D6F81846CAE73046BDE8F04137
:1008500000F086BED0F85816BDE8F04100F0A6BE04
:1008600001F0F0FB6FF47A78DFE700BF2DE9F84F75
:10087000D0F858A6604BDAF8082005469A4200F0F6
:1008800087800AF5805632695C4FDFF88C8102F16F
:10089000100053460121C2F580525044FFF79AFEE2
:1008A000041E40F3848000F0FDFC3369D5F8602617
:1008B0002344D206C5F8680633617FD47469A34225
:1008C0001CDC82E0D5F818362BB1D5F81C269368CD
:1008D000B3F5AF6F07DB284600F0EEFB00284BD0E6
:1008E000D5F81C269368591C91600AEB0401097C19
:1008F0001A44117433690134A3422BDD0AEB04035B
:1009000093F91420232ADDD193F91130212BD9D169
:1009100004F110030AEB0309394648461AF0E6F9D8
:1009200098B3A0EB090000F1030B0C2241464846A6
:10093000746119F05FFF98B10A224846304919F0F6
:1009400059FFF0B1D5F858365C44534510D1002317
:100950007361B7E772698ABB002C2FDD326196E7BD
:10096000284601F037F8D5F858365C445345EED0A8
:1009700074610020BDE8F88F01F064FB2148BDE8F8
:10098000F88F284601F092F8DCE701F05BFB99E76D
:10099000DAF80410CB69002B3FF473AF9847B0B975
:1009A000D5F858A6BAF1000F7FF46BAFE1E75046D7
:1009B000FFF718FED5F85836002BDAD103232B7237
:1009C0002846BDE8F84FFFF7FDBE2246C3E7D5F83D
:1009D0003C4628460C49FFF777FC224628460B493F
:1009E000FFF772FC28460A49FFF76EFC2846FFF71E
:1009F000E9FE0848C3E700BF0C00002010D9010041
:100A000024D9010016FCFFFFE8D70100E4D801005B
:100A1000FCD8010012FCFFFF14D901002DE9F041C0
:100A200000F109070446ADF50A7D38469F491AF0E2
:100A30005DF928B305462046FFF780FE2B1D94F98B
:100A4000091094F90A20C4F8143694F90B3094F97B
:100A50000C6042EA012243EA022346EA0326944B51
:100A60009E4213D003F1106303F51F2303F6347382
:100A70009E420BD08F4B9E4240F0D78001F0E2FAAD
:100A8000002528460DF50A7DBDE8F081C4F85C66B6
:100A900004F10C0000F0F4FD8046002800F0B9805D
:100AA00090F900302F2B00F093800346C4F82036D5
:100AB0004146814800F0FCFD4146C4F828067F48C5
:100AC00000F0F6FD4146C4F824067D4800F0F0FD34
:100AD0004146C4F82C067B4800F0EAFD08B11AF044
:100AE000ADF8734BC4F810069E4200F08180D4F834
:100AF0002006874202D2A842C0F0B880D4F8280667
:100B0000874202D2A842C0F0B480D4F824068742BB
:100B100002D2A842C0F0A780D4F82006D4F82C3620
:100B2000984202D9AB42C0F0988001F0F9F994F8EC
:100B30003436002B54D06449D4F8200602F0E0F893
:100B400000284DD0D4F838160AA819F00DFCD4F8B6
:100B500020160AA819F06AFC20465C4A0AA9FFF789
:100B6000FFFC0546002D72D1D4F85836002B00F05A
:100B70008C809A68002A00F088805868002800F06D
:100B800084809569ADB1D4F82836002B48D0202256
:100B900020460AAB02A9009201F02AF8D4F8583690
:100BA0000AAAD3E9010502A92346AD69A84700288E
:100BB00070D0204600F0B6FED4F860363C4A23F0F0
:100BC00008039642C4F8603656D00123237257E7D3
:100BD00090F90130202B0ABF3D4B431C1B6865E791
:100BE00020463A4AD4F82016FFF7BAFC0546B9E782
:100BF00040463F2119F029FC00283FF478AF014618
:100C00000023204601F8013B00F012FE00283FF4CB
:100C10006EAF4FF4C871204600F04AFB2D4D30E70F
:100C20002D4A23461146A847C1E701F00BFA40F2CE
:100C3000F511204600F03CFB0422D4F860364FF05A
:100C4000FF3523F00103C4F86036227219E74FF430
:100C5000CA71204600F02CFB13E7184600F07AFD1D
:100C6000D4F8200661E700F075FD55E700F072FD4D
:100C700044E700F06FFD48E70223204623720DF59C
:100C80000A7DBDE8F041FFF7F1BD01F0DBF96FF43B
:100C90007B75F6E640F29111204600F009FBD4F88E
:100CA0005806FFF79FFC0D4DEBE600BF70DA010020
:100CB000205445472054555030D9010040D90100F7
:100CC0004CD9010054D9010064D9010080F601001B
:100CD0005000002015FCFFFF74DC010010FCFFFF3A
:100CE0002DE9F84FAF4EDFF8CC82DFF8CC9201222D
:100CF000D8F80010306814F099FAAB4D3368D9F881
:100D000000402B60F4B1A94F0AE00222396814F0C8
:100D10008DFA63682A68934288BF2B60246884B187
:100D20006068431CFAD0237A002B33D0D4F81836ED
:100D3000002BEAD1D4F86036D906E6D42468002C1A
:100D4000EED12B6803F5E8732B60994BD8F80000BF
:100D5000196814F0DBFA421C074600F01F81D8F82E
:100D60000010306814F0B0FA002840F00081D9F883
:100D70000060002E3AD000254FF0020A4FF004091F
:100D800034463668237A042B24D8DFE803F07A4906
:100D9000320E43000122D8F8001014F047FA6068C0
:100DA0002B68984288BF2860C0E7D4F81836002B1B
:100DB00000F09480D8F80010606814F085FA0028DC
:100DC00040F0998000F06EFA237A0137032BC4F8C3
:100DD0006806D8D1D4F8683603F5123B00F062FA01
:100DE0000BF5F87B834515D3002EC9D13846BDE8F5
:100DF000F88F2046FFF73AFDD8F8001005466068E6
:100E000014F062FA002840F084800137002D60D091
:100E100084F80890204600F091F9002EB0D1E5E763
:100E2000D4F80C16D4F85836B1F5C06F5B6838D0DA
:100E300004F10905C1F5C06200232944606814F07B
:100E40006BFF0546002DC0F28B80D4F80C362B4486
:100E5000C4F80C3600F026FAD4F81416C4F8680664
:100E600059B1D4F80C3604F10900D4F81026081A48
:100E70001B1A9A421FDD802D1DD0237A012B82D1AF
:100E8000A8E7D8F80010606814F01EFA002847D1CF
:100E9000D4F80C36002B5DD1237A002B7FF473AF8E
:100EA00098E7DB69002BCDD000F0FCF9D4F81416DC
:100EB000C4F8680659B1204600F0BAFC054600287F
:100EC0005ED184F808A000F0EDF9C4F868060025AA
:100ED000D3E7237A022B7FF456AF7BE7D4F8603652
:100EE000DB067FF577AFD8F80010606814F0ECF9F6
:100EF00000283FF467AF2046FFF764FC054608B1C1
:100F000084F80890294B02221968606814F0B6F939
:100F100058E70122D8F80010606814F0AFF974E7C0
:100F2000D4F80C0604F10901C0F5C06201440023A5
:100F3000606814F0F1FE051E28DDD4F80C362B4451
:100F4000C4F80C3600F0AEF9D4F80C36C4F86806D4
:100F5000002BA1D02046FFF761FD013705469BE736
:100F600019F072FF03680B2B18D100256DE7FFF70E
:100F7000B7FB00283FF4FBAE07463846BDE8F88FC4
:100F80004FF4C871204600F093F923E719F05CFF95
:100F9000204600F0D3F86FF47A7727E719F054FF72
:100FA000F9E700BF740800207008002064080020E2
:100FB0004C000020680800208808002038B50B4D40
:100FC0002C682CB910E0012010F082FB2B685BB17B
:100FD000FFF786FE041EF6DA01F034F8012010F067
:100FE00077FB2B68002BF3D1204638BD6C0800201E
:100FF000F8B500F10C06044630460EF08DFE0546AD
:101000003246002119F0D0FF0E4F0F4B0F4ED3F890
:1010100000C03B680E495A1C336805F108000133D3
:10102000C5E900C4DFF82CE040F804C033600B6869
:101030003A601C44DEF800300C609C4288BFCEF859
:101040000040F8BD840800205800002078080020E7
:10105000800800207C08002070B5124D50F8082C44
:101060002B6804469A42A0F1080603D00E4801F00E
:101070002FF82B6854F8042CA158994204D00B483F
:1010800001F026F854F8042C094C0A49236830462C
:10109000013B23600B68BDE870409B1A0B600EF0AB
:1010A000D5BE00BF5800002078DA010088DA0100C0
:1010B000840800208008002010B504464FF4B16079
:1010C000FFF796FF48B1D4F81C3603B11860D4F886
:1010D0001836C4F81C060BB1446010BDC4F81806DD
:1010E000FAE700BF4268D2F8183613B906E01B6869
:1010F00023B19842FBD10368C2F81836FFF7ACBFA2
:1011000010B540F26C60FFF773FF044690B14FF0EA
:10111000FF3200234260037200F0C4F8064AD4F89C
:101120006036116843F001032160C4F86036146032
:10113000C4F86806204610BD8808002038B505466A
:101140004068431C03D014F041FB00236B601E4A2F
:1011500013684BB19D42196802D132E09D422DD0F7
:101160001A461B68002BF9D1D5F8180688B14268D9
:10117000D2F8183613B906E01B6823B18342FBD1BD
:101180000368C2F81836FFF767FFD5F8180600287D
:10119000EDD1D5F8580608B1FFF724FAD5F8304656
:1011A0003CB120462468FFF757FFC5F83046002CB5
:1011B000F7D12846BDE83840FFF74EBF2B681360D3
:1011C000D2E71160D0E700BF8808002070B505465F
:1011D00041F218000C461646FFF70AFF38B1D4F862
:1011E0005836C0E90165C4600360C4F8580670BD94
:1011F000C26808B5D2F8583643B1984202D10FE020
:10120000984207D01A461B68002BF9D1FFF724FF3C
:10121000002008BD03681360FFF71EFF002008BD13
:101220000368C2F85836FFF717FF002008BD00BF5B
:10123000004870475C00002090F900305C2B27D0FC
:101240002F2B25D091F900205C2A1FD02F2A1DD0EA
:101250002BB300B511F9012B43F0200E42F0200C06
:10126000D2B1E64507D05C2B01D02F2B14D15C2ADC
:1012700001D02F2A10D110F9013F002BEAD191F9AA
:101280000000003818BF01205DF804FB0131DFE7E2
:1012900090F901300130D5E701205DF804FB012011
:1012A000704700BF08B510F03BFA20EAE07008BDB7
:1012B000B1F5C87F2DE9F0410F46064600F0A08049
:1012C00040F2911399427DD0B1F5C97F00F0A7801B
:1012D000B1F5CA7F00F0A68040F2F513994200F004
:1012E000A480534D0A46534B5349284619F036FC07
:1012F000284619F0F7FB03463046DFF838811D44D5
:10130000FFF796FF02464D49284619F027FC28466C
:1013100019F0E8FB05444A4A4A49284619F01EFCE0
:10132000284619F0DFFB8646DFF834C12C18BCE8EC
:101330000F0045F80E00DCF80000E360BCF8043054
:101340006160A382A2602061204619F0CBFB0444B7
:101350003A463D49204619F001FC204619F0C2FBEF
:1013600004443A4643462046384919F0F7FB2046E4
:1013700019F0B8FBD6F8202604443AB12046344987
:1013800019F0ECFB204619F0ADFB0444314D0FCDB4
:10139000616029782060A260E3602174244819F01C
:1013A000A1FB002302462249706814F04DFD7068CD
:1013B00014F00CFA04234FF0FF32337200207260F5
:1013C000BDE8F0811A4D0A46234B1B49284619F007
:1013D000C5FB284619F086FB034630461D44FFF73F
:1013E00027FF16490246284619F0B8FB284619F08F
:1013F00079FBDFF86480D6F820261849054483E796
:10140000DFF860800A4D43463A460B49284619F0FA
:10141000A5FB284619F066FB034630466FE7DFF868
:101420004880EFE7DFF84480ECE7DFF84480E9E745
:1014300090080020B0DA0100C4DB0100D8DB010015
:101440000CDB010024DB01004CDB01007CDB010034
:10145000A0DB0100B0DB010098DA0100E4DB010051
:1014600034DB0100E8DA0100D4DA0100C4DA01005B
:10147000FCDA01002DE9F041314F324D3C46064681
:1014800088460FCD0FC42B6882B03846238019F0F0
:1014900029FB05463046FFF7CBFE3D4402462A496C
:1014A000284619F05BFB284619F01CFB0544274A27
:1014B0002749284619F052FB284619F013FB8646A7
:1014C000DFF898C02C18BCE80F0045F80E00DCF8D7
:1014D0000000E3606160A2602061204619F002FB19
:1014E00004441C49D6F86426204619F037FB2046F0
:1014F00019F0F8FA42461849204419F02FFB3846F3
:1015000019F0F0FA0446002339462246706814F0B8
:101510009BFC0190019BA34209DB0020D6F86036BA
:1015200043F00803C6F8603602B0BDE8F08119F058
:101530008BFC03461B686FF47A700193F4E700BFDD
:10154000900800200CDC010020DC01000CDB010015
:1015500024DB010044DC010058DC010030DC010028
:10156000D0F8603610B59A06044617D45B060BD542
:1015700000F068FDD4F858269368DB6993B12146E2
:10158000BDE8104050681847406814F01FF94FF04C
:10159000FF32042362602372002010BD00F052FD70
:1015A0000023F8E76FF47B7010BD00BF2DE9F04118
:1015B0000F46D0F86016054611F0080432D04FF0FF
:1015C000010807F5805407F110062A7A032A20D172
:1015D000226952B94FF480523B4601213046FEF752
:1015E000F9FF00280246206145DB00233146686888
:1015F00014F02AFC002834DB2369B3F5805F0BDA92
:101600003846FEF7EFFF2846FFF7AAFFB8F1010FB3
:10161000DBD10020BDE8F08100230120236110F020
:1016200057F8F3E73846FEF7EFFF21460646022259
:101630003846FEF7E5FF3846FEF7E6FF034622464A
:101640001C4631463846FEF7DBFFB4F5003F28461E
:101650002146ACBF4FF001084FF0FF38FFF70AFFFB
:10166000AFE719F0F1FB03680B2BD2D06FF47A705F
:10167000002BCED0CEE76FF47B70BDE8F08100BFC9
:1016800090F90030202B03DD10F9013F202BFBDC0B
:10169000202B0BD190F90030202B03D110F9013F02
:1016A000202BFBD01F2BD8BF002070470020704795
:1016B0002DE9F8430C46064619F014FA244F8146EA
:1016C00004F5C06807E004223946284619F092F86C
:1016D000D0B3A04538D0254696F9003014F901CB97
:1016E0009C45F0D14A463146284601F0EDFA0028E3
:1016F000E9D195F90030202B03DD15F9013F202BAE
:10170000FBDC202B20D195F90030202B03D115F9DB
:10171000013F202BFBD01F2B16DD95F90030202B2D
:101720002B4603DD13F9012F202AFBDC1A4600218A
:1017300002F8011B5B78013B1F2B06D812F8013F12
:10174000013B1F2BFAD900E000252846BDE8F883AD
:1017500070DC010090F90030202B03DD10F9013F0F
:10176000202BFBDC0023024602F8013B90F901101C
:101770004B1EDBB21F2B05D812F9011F4B1EDBB22B
:101780001F2BF9D9002914BF10460020704700BF55
:1017900030B5864600200EF1FF32144612F9011FC3
:1017A000CBB2A3F1300CBCF1090FA3F16105A1F19B
:1017B000300C06D84FFA8CF3A64503EB0010ECD1A1
:1017C00030BD052DA3F1410304D9052BF8D8A1F1B3
:1017D0003703F1E7A1F15703EEE700BF90F90030BE
:1017E000202B23DD70B5044620262B2B04F10105A8
:1017F0001AD0252B05D02C4694F90030202BF4DC90
:1018000070BD2846FFF7C4FFC2B20346002AF3D0DA
:1018100004F8033B284619F065F90246214628469C
:10182000013A19F0A7FBE6E72670E4E7704700BF2E
:101830002DE9F04F91F9005083B00190002D54D064
:101840000C460B46002704E0202D09DD13F9015F4B
:1018500035B13D2DF8D113F9015F0137002DF8D1D5
:10186000B81CC000FFF7C4FB8146002853D0476076
:10187000002F41D000260546B0460CE004F8018B4D
:10188000A868FFF7ABFF0136E868FFF7A7FFBE4285
:1018900005F1080530D03D212046AC6018F0D5FD9B
:1018A0008346A0B382460AF8018B26215046C5F82C
:1018B0000CA018F0CAFD04460028DFD19BF90120D6
:1018C000202A03DD1AF9012F202AFBDC524602F8F8
:1018D000018B9AF80130013B1F2B04D812F8013F0D
:1018E000013B1F2BFAD90024CAE71020FFF780FB29
:1018F000814680B1C9F804500020019AD2F83036F0
:10190000C9F80030C2F8309603B0BDE8F08F034844
:1019100003B0BDE8F08F0248F6E700BF15FCFFFFFB
:1019200016FCFFFF70B52E210546D0F8200619F0F1
:1019300089F900283CD004224FF0000C224E0130DF
:1019400090F900304FEA0C2C1946F45C04F00304C3
:10195000022C08BFA3F120011F2BC9B2C8BF013060
:10196000013A41EA0C0CEBD1114640F2EB10174C56
:1019700002E0013181421BD054F82230033263452A
:10198000F7D101EB410304EB83039A684B00D207C4
:1019900007D40B4404EB830463680120C5F8643664
:1019A00070BDD5F8602642F01002C5F86026F0E759
:1019B000D5F86036002043F01002054BC5F86026CC
:1019C000C5F8643670BD00BF6974020058FB0100A1
:1019D00078DC0100F8B50446D0F858062F4900F528
:1019E00080535B691033184419F080F9002851D0F6
:1019F0000346871D93F90510384618F026FD034667
:101A0000002847D000253F2138461D7018F01DFDE5
:101A1000064620B1411C2046FFF70AFF3570202101
:101A2000384618F012FD054640B3002339462B70A6
:101A300020461B4AFEF794FD202307462B702FBB40
:101A4000D4F85856174BAA6820469A4203D0BDE8EE
:101A5000F840FEF70BBF6968CB69002BF7D09847B9
:101A60003EB1D4F8300606681EB1FFF7F5FAC4F8A7
:101A700030662846FEF7B6FD3846F8BD39462046A2
:101A8000074AFEF76DFD0746002FD9D000F0DAFABD
:101A90003846F8BD00F0D6FA034FEDE794DC0100BC
:101AA00080F601000C00002011FCFFFF70B5D0F89B
:101AB0005846054604F580535B690D221A331C44D1
:101AC00020460F4918F096FEA8B994F90D10064665
:101AD000272901D022290ED10E34204618F0B5FC5A
:101AE00048B10021074A017013683BB121462846DE
:101AF000BDE87040184700F0A5FA034E304670BDAF
:101B00009CDC01008C08002011FCFFFF2DE9F04354
:101B1000034613F9012B0446202A01D0092A01D1DA
:101B20001846F5E70546314A15F9013B52F82330CE
:101B30003F2BF9DD2D1A15F1020848BF05F1050804
:101B40006E1E4FEAA808002E08EB48083DDDAE1EC9
:101B500000F1080326F003071F4401F1030E031DE3
:101B600013F9034C13F904CC52F8244052F82CC05A
:101B7000241144EA8C040EF8034C13F9024C13F9B7
:101B800003CC52F8244052F82C904FEAA40C4CEAB3
:101B9000091C0EF802CC13F902CC13F9014C52F8CF
:101BA0002CC052F82440043344EA8C149F420EF8AF
:101BB000014C0EF1030ED3D1B608741C053DC6EBE3
:101BC000867600EB840405EB8606B30709D014F98A
:101BD000023C52F823303F2BCCBFA8F1020808F199
:101BE000FF38002301F80830BDE8F083B4DC0100C1
:101BF0002DE9F047D0F828A6ADF5806D42240E46B9
:101C000017461D46DDF82084DFF884900AF1FF3E78
:101C100003E098422FD119F9014F1EF901CF44F08A
:101C20002003BCF1200F4CF02000F2DC202C22DC41
:101C30000AF1060A504618F055FFB0F5806F1AD821
:101C400050466946FFF762FF3A21684618F0FDFBEF
:101C5000B8B1044600233A4604F8013B69463046D1
:101C600018F0DAFD42462146284618F0D5FD0DF55C
:101C7000806DBDE8F0870DF5806DBDE8F04700F0A0
:101C8000E1B9307028700DF5806DBDE8F08700BFB8
:101C9000ACDC01004368B3BB2DE9F0430368846802
:101CA0000D460444C1188C421ED9904695F9006037
:101CB00046F0200791F90C3043F02003BB420FD1CE
:101CC00001F10C09AE46CC46304688B11EF9010F31
:101CD0001CF9013F40F0200243F020039A42F4D067
:101CE0000B6819448C42E5D84FF0FF30BDE8F08313
:101CF0004B688A680B44C8E90232C8F8009088F83B
:101D00001000BDE8F0834FF0FF30704790F90030CD
:101D100003B310B58C1811E0E64507D05C2B01D059
:101D20002F2B13D15C2A01D02F2A0FD111F9013F9B
:101D30000BB9A1420CD010F9013F3BB191F9002041
:101D400043F0200E42F0200C002AE5D1012010BD06
:101D5000184610BD0120704770B591F900300E464D
:101D60005C2B044620D02F2B1ED02068551E58B95E
:101D700019E02F2B0ED02A463046FFF7C7FF88B157
:101D8000A3681C44206870B194F90C3004F10C0174
:101D90005C2BEED12A46304604F10D01FFF7B6FF69
:101DA0000028EDD1204670BD0136013ADDE700BFC5
:101DB00070B591F9006015463EB38C463346002459
:101DC00005E02F2B08BF64461CF9013F33B15C2BA3
:101DD000F7D164461CF9013F002BF8D1ACB10134B6
:101DE000621A04D0012A0BD0FFF7B6FF78B100F1D8
:101DF0000C032A4621466B60BDE87040FFF74ABFDE
:101E00005C2EF4D02F2EEFD1F1E70C46EFE76FF008
:101E1000010070BD034650B103F1140C1B7D083066
:101E20005C2B04D19CF801300BB9FFF7C1BF6FF0F8
:101E3000020070470649074B4A8900200132A3FB84
:101E400002C35B0803EB4303D21A4A81704700BF09
:101E500018290020ABAAAAAA0020704710B5094C87
:101E6000094BA28909480132A3FB02135B0803EB6B
:101E70004303D21A08210068A2810EF07BF90020EA
:101E800010BD00BF18290020ABAAAAAA9C8400207C
:101E9000F0B5044689B011480EF016F8104A114DFD
:101EA0009089178915F800C0D68895880E49204674
:101EB000D1F894305488D1F89020CDE9057CCDE953
:101EC00003560294D1F89C400194D1F898400749F8
:101ED0000094FEF7F9F9002009B0F0BD780C00205D
:101EE00018290020E0000020008100016412020097
:101EF00070B50A4C0546A4F12006B44209D0294623
:101F0000A069FFF799F9A4F1080320B11C46B44277
:101F1000F5D1002070BDE06970BD00BF141402004F
:101F200090F9003013B3024605E0013200F8013C9D
:101F300092F90030D3B1252B00F10100F5D1517891
:101F4000A1F13003DBB2092B1CD81B0192F802C0AF
:101F50000332ACF13001C9B209290AD80B445BB293
:101F600000F8013C92F90030002BE4D1002303700B
:101F70007047ACF1410105299CBFACF1370C53FA15
:101F80008CF3ECE7A1F14103052B9BBF3739C9B2B4
:101F900000230B01DAE700BF4FF0FF30704700BFAE
:101FA00000207047002070470020704770B50A4C31
:101FB0000546A4F12006B44209D02946A069FFF7DE
:101FC0003BF9A4F1080320B11C46B442F5D100202E
:101FD00070BDE06970BD00BF74140200012070473D
:101FE00008B5FEF7EBFFFCE730B5104C83B0236873
:101FF00013B1002003B030BD0D4B1860FEF708FB95
:102000000028F6D10225226803460A490A480192AF
:1020100088614FF480520949094800950FF000FA91
:102020002068003818BF0120E4E700BF940C0020AE
:10203000540000200C000020DD1F0000941402005A
:10204000E11F0000EFF31080012383F310881B4B86
:10205000196829B94FF0400C194AD17082F803C0B1
:102060001A6801321A6080F31088164A16485268BE
:1020700011880A0A120152FA81F150F8212022F047
:10208000011222F4404242F0050240F82120EFF311
:102090001081012282F310881A6812B11A68013A7D
:1020A0001A601A681AB98020054BDA70D87081F36B
:1020B0001088064B00BF013BFCD1FAE79C9400203E
:1020C000000D0840CC50020000080840400D0300FD
:1020D00008B5FFF7B7FF00BF70B5146804431DD003
:1020E0000346B3FBF1FC9E46D4685669651ED56075
:1020F00001FB1C35634616F905C08E4504F801CC7A
:10210000EFD21468002C09DA137E1D0706D592F968
:102110001A309468002B18BF013C1460D2E90331D7
:10212000C91AA1420ADA3025591ED16003F8015CB0
:102130001468D2E90331C91A8C42F5DC117E4907D3
:1021400008D538B192F9191021F02000582802D092
:102150006F290BD070BD30205C1ED46003F8011CC9
:10216000D368591ED16003F8010C70BD93F90010BB
:102170003029EFD03021581ED06003F8011C70BD0B
:102180002DE9F84F55EC104B814600222046294698
:10219000594B17F08FFE002845D051A3D3E90023F7
:1021A0002046294617F086FE002800F097804EA7AB
:1021B000D7E900670FF2281BDBE900AB4FF00008FE
:1021C00032463B462046294617F018FD08F10A081A
:1021D00052465B4604460D460FFA88F817F06AFE31
:1021E0000028EDD1002220462946444B17F062FE1C
:1021F00098B10026414F32463B462046294617F00B
:10220000FDFC08F1010832463B4604460D460FFA34
:1022100088F817F04FFE0028EDD145EC104BA9F8D7
:102220000080BDE8F88F002200232046294617F0E1
:1022300037FE38B9002200232046294617F03AFE1F
:10224000002849D02AA3D3E900232046294617F0C5
:1022500027FE8046D0B124A7D7E900670FF2900B84
:10226000DBE900AB4FF0000832463B4620462946EA
:1022700017F09AFBA8F10A0852465B4604460D4641
:102280000FFA88F817F00CFE0028EDD10022204646
:102290002946194B17F0FAFD0028BED000264FF052
:1022A000000A164FDFF850B032463B46204629461A
:1022B00017F07AFB08F1FF3852465B4604460D469C
:1022C0000FFA88F817F0E2FD0028EDD145EC104B2D
:1022D000A9F80080BDE8F88F80469EE7804681E738
:1022E000000000E876483742000000205FA002426C
:1022F000BBBDD7D9DF7CDB3D0000F03F00002440B0
:10230000F0B590F919401CB1002101201980F0BDF1
:10231000002902DB494209B2F7E730251468661C40
:1023200016602570B0F9006036BB047E670704D5DF
:102330002E251468671C176025704D1C1AD04FF0AD
:10234000FF3C4FF0300E04680BE01468614504F167
:102350000105156084F800E0046804F1FF340460AE
:1023600005D00CF1FF3C0FFA8CFC002CEDD1F643AC
:10237000B14209DB0121C8E72E251468671C1760EC
:1023800025704C1CDBD1F2E70020F0BD2DE9F04FA9
:102390008046002489B0D8F80C30CDE90121D8F866
:1023A00008200DF11A0003EB020AC8F80CA00D4634
:1023B000ADF81A4003930492CDF81CA0FFF7E0FE9D
:1023C00057EC106B002D73D0BDF91A50D8F80030BF
:1023D0009D4204DA2A1DA4BF88F819405B1B013B0B
:1023E000C8F80030294606AB404607AAFFF788FF29
:1023F000019B83F001030293002800F09C80BDF94B
:102400001890D8F80030DDF81CB0994500F3BA8078
:1024100005954C465D463946304617F05FFD0FFA8C
:1024200080F9484617F056FA02460B4630463946C0
:1024300017F002F900226D4B17F0B6FAAB4609F11E
:10244000300906460F460BF8019B002C40F08780B0
:10245000D8F80030002B40F08F80019B002B40F01B
:102460008B805C46059DCDF81CB030463946002275
:102470005F4B17F01FFD00285ED022462146012049
:10248000302602E000208A457ED211F9013D2E2B34
:10249000F9D048B93A2BF5D18A450E7076D211F9A8
:1024A000013D2E2B00F08E8001335BB20B70F1E703
:1024B000BDF91A504046294606AB07AAFFF720FF90
:1024C00000289CD1079C98F919206AB3BDF91A30ED
:1024D0002270002BB4BF2D222B224FF00005B8BF75
:1024E0005B42444E6270B8BF1BB20C34214686FB7F
:1024F0000320DA17C2EBA00202EB8200A3EB400339
:1025000003F1300013B2013501F8010B8BB9012D35
:102510000FD0ED43A4F10A024B1913F9011F9C429D
:1025200002F80119F9D1093CC8F8104009B0BDE81A
:10253000F08F0C46DAE7079C029B002BC3D014F9FE
:10254000012C302A06D1631E1C4613F9012D302AB6
:10255000FAD007942E2AB5D1013C0794B3E75D4623
:10256000D8F8003001349C427FF755AFAB46059D4B
:102570005C46CDF81CB078E74FF02E03023505F825
:10258000013CEDE75C4670E70028D5D098F919309A
:10259000D3B1A24538BF23460CD213F9012C2E2A01
:1025A00012BF194613F9022C03F1FF311A704B1EAA
:1025B0009A45F2D36B1CADF81A303123DDE90321C3
:1025C0005354B9E701205EE70134A2450794F4D2E1
:1025D0000AF1FF31AAEB0200891ACAF10103214472
:1025E0001A44204418F0C6FCE7E700BF000024406E
:1025F00000001440676666662DE9F04F0024064629
:102600000D4692469B4695B0374617F9010B252893
:102610008DF829000CD0A0B15146A84788B93E4694
:10262000374617F9010B013425288DF82900F2D11E
:1026300096F90100252808D15146A847002800F046
:10264000A680204615B0BDE8F08F00220CAB0793A2
:102650000893A44B202809931146964616468DF8F8
:102660002A208DF82820A0F123037ED00D2B08D836
:10267000DFE803F0850707070707070789078107D2
:1026800007728DF82900002A00F0BE808DF828100E
:10269000BEF1000F01D08DF82A602A287AD15BF8AC
:1026A000043B002BC0F29B82069301F0100397F9C4
:1026B00001000137002B40F086802E2800F08A8030
:1026C0004FF0FF33049320F020034C2B07F101025D
:1026D00000F09180682800F08E823A46A0F1450310
:1026E0008DF82900561C332B00F29480DFE813F09C
:1026F000FE0092006E019200920092009200920001
:102700009200920092009200920092009200920039
:10271000920092009200E5009200920092009200D6
:102720009200920092009200920092002802DA0138
:10273000FE00FE006E019200DA019200920092000B
:1027400092001D02E500E50092009200390292001D
:10275000E50092009200E500012241F0080117F91E
:10276000010F2028A0F1230380D1002EF7D10646C7
:102770004FF0010EF3E7012241F01001EFE70122D3
:1027800041F00401EBE74FF0010E0646E7E70236A1
:10279000013439E7A0F13003DAB2092A4FF0000220
:1027A0000BD817F9010F5BB202EB820203EB420276
:1027B000A0F13003DEB2092EF3D901F01003069226
:1027C000002B3FF47AAF21F008018DF828102E2855
:1027D0007FF476AF97F901002A2857D197F90200C4
:1027E0005BF8043B0237049320F020034C2B07F1E5
:1027F00001027FF46FAF9DF8283097F9010043F094
:1028000002038DF8283069E71146BEF1000F7FF40E
:1028100042AF42E74FF01909334B002808BF164674
:10282000984607934B4408939DF82870069B9DF9A2
:102830002A009945CDF8109040F35D8117F01007FC
:1028400000F0E2810023059328B15146A8470028F3
:102850007FF4F7AE013409F1FF33002B0493C0F28B
:10286000A8812B464546B0461E4606E0049B01342F
:10287000013B002B0493C0F29A8101355146079524
:1028800015F9010CB0470028F0D0DAE6A0F13003CA
:10289000DAB2092A07F101074FF000020BD817F945
:1028A000010F5BB202EB820203EB4202A0F13003A4
:1028B000D9B20929F3D9049205E76F285BF8043BE4
:1028C00000F0CA81782800F0B381702840F0F081D0
:1028D0000DF14F020792089200228DF82A20102154
:1028E0001846F7E0A4140200FC140200662804BF96
:1028F00000238DF8293000230593049B0BF1070B6F
:10290000002BB8BF06232BF0070BB8BF0493FBE8DE
:102910000289002200234046494617F0B7FA48B121
:1029200009F1004303932D23CDF808808DF82A3058
:10293000DDE90289404649464FF0FF32BB4B9DF826
:10294000287017F0C1FA002840F0988140464946A7
:1029500000224FF4801317F099FA88B14046494697
:102960000022002317F09CFA002840F09C8140468A
:1029700049460022002317F09DFA002840F0938179
:1029800049EC108BC7F38002002104A8FFF7FEFC7E
:10299000DDE907829DF82870A2EB08093907069B3C
:1029A0009DF92A007FF545AF00280CBF1946591E36
:1029B00049457FF73EAF4FF0300C08F801CDA2EB50
:1029C00008094945F9DCCDF81C8032E70123049A57
:1029D0000238002A8DF82900059301D001DA062378
:1029E00004930BF1070B2BF0070BFBE80289002285
:1029F00000234046494617F049FA48B109F100431F
:102A000001932D23CDF800808DF82A30DDE900896F
:102A1000404649464FF0FF32844B9DF8287017F02E
:102A200053FA002840F022814046494600224FF4E4
:102A3000801317F02BFA88B1404649460022002344
:102A400017F02EFA002840F02C814046494600221B
:102A5000002317F02FFA002840F0238149EC108B57
:102A6000C7F38002012104A8FFF790FCDDE907828B
:102A70009DF82870A2EB08093907069B9DF92A00EA
:102A80007FF5D7AE00280CBF1946591E49457FF780
:102A9000D0AE4FF0300C08F801CDA2EB0809494543
:102AA000F9DC90E79DF828300BF10402D8074BBF02
:102AB000BBF90000DBF8003003461846002B03DAB0
:102AC0002D2340428DF82A3093460A210DF14F0301
:102AD0000793089304AAFFF7FFFADDE90783A3EB46
:102AE0000809069B9DF8287099459DF92A00CDF8A4
:102AF00010903FF7A3AEA3EB0903002818BF013BDA
:102B000017F010077FF49FAE013B002B059306DA08
:102B10007DE0059B0134013B002B059379DB514699
:102B20002020A8470028F4D08BE59DF82820DBF86A
:102B30000030D2074CBF1C801C600BF1040B63E516
:102B40005BF8042B0DF1310308934FF00109069B4C
:102B50009DF828709DF92A000DF130088DF830207D
:102B600067E65BF8048BB8F1000F00F095804246F1
:102B70000023059312F9013B0792002B00F095808A
:102B80000027049BB946013308EB030007E0134616
:102B9000012713F9011BB94400293DD01A46904280
:102BA000F5D1013A002F37D1B946904636E0354687
:102BB0004646002F3FF428AD059B013B002B0593B3
:102BC00007DA21E5059B0134013B002B0593FFF655
:102BD0001BAD51462020A8470028F3D031E541F035
:102BE00010015B4221F0080197F9010006930137BB
:102BF0008DF82810EBE59DF8283097F9010043F097
:102C000001038DF8283069E54FF0FF330593002765
:102C10001AE69DF92A0017E6A2EB0908CDE907821A
:102C2000069B9DF828709DF92A0002E6FFFFEF7FC2
:102C3000214A09929DF82820D7070DF14F020792EB
:102C400008924FF0000248BF9BB26F288DF82A20EF
:102C50001CD1082118463DE79DF828205107EBD5E7
:102C600004990029E8D101210491E5E7134B9A1D4D
:102C700098464FF0060907930892FDE60F4B9A1D00
:102C800098464FF006090793089287E675287FF467
:102C900026AE0A2118461DE7DFF8288008F1010258
:102CA0006EE7074BE3E7064BE9E799464246B5E78F
:102CB0009DF82820C0E700BFB8140200D414020019
:102CC000CC140200DC14020030B5864602E0A3B149
:102CD000634512D11EF8013B11F801CBA3F1410568
:102CE000192DACF14105A2EB0E0498BF2033192D2C
:102CF00098BF0CF1200CE042E9D1A3EB0C0030BDF1
:102D000010B591F90040CCB190F90020EAB144F03F
:102D1000200490F9003043F020039C420FD10A4672
:102D2000844605E01CF9013F43F02003734506D1BA
:102D300012F9013F43F0200E002BF3D110BD10F922
:102D4000013F002BE5D1184610BD104610BD00BF55
:102D500070B541B3174E134605460A4630464FF448
:102D6000807117F035FB041E1BDBFD2C17DC75B9D9
:102D70007C22104B1048114904F09CFC21460D4860
:102D800000F018FE80F001004000C0B270BD0C4B96
:102D9000A21919889B78315393700234E8E7062012
:102DA00070BD052070BD6A220449064804F082FC0B
:102DB0000B2070BD981000206C15020070170200E7
:102DC0006CDC0100181502000B4600212DE9F04FC4
:102DD0000F4615460446B946AB46DFF8508285B02B
:102DE0004FF4007290480394019308F2FF1618F014
:102DF000DBF8009702974FF4007200218B4818F01F
:102E0000D3F84FF0000A894C2046594600F0F4FDF3
:102E1000BAF10D0F59D0002840F0858014F901ABAC
:102E2000B442F1D1A522814B8149824804F042FC91
:102E3000072598F90030002B6DD07C4A03E012F989
:102E4000013F002B64D0202BF9DDAD22774B784970
:102E5000794804F02FFCB9F1000F68D1019B002BD9
:102E600065D07649714817F041FF019904466F48D3
:102E700017F03CFF0746002800F08A80019817F001
:102E800031FEDFF8C4A13B185F1C574580F0A080DD
:102E900093F900303A2B62D16849AAF5007017F017
:102EA00025FF30B3524639465F48D21B17F0E3FB8B
:102EB0005D49634804F0FEFB029B002B40F0A880B4
:102EC0000024204605B0BDE8F08F94F900300A2BAD
:102ED000A1D1002324F8013C98F900300025002BF3
:102EE00089D0AAE7B9F1000F09D1002F56D0DFF839
:102EF00058A139464C48AAEB070217F0BCFB009BCF
:102F0000002BD5D1029B002B7AD14FF00109009301
:102F1000002D3FF470AF2C46B9F1000F49D1204687
:102F200005B0BDE8F08F0728054682D17AE7039BFC
:102F300013B1029B03B9C7B140493C4817F0D6FE14
:102F40000028CFD0B9F1000FB2D1FFB9019B002BFF
:102F50002DD001230093002D3FF44DAFDBE7039B01
:102F6000002B41D0029B002B43D136492F4817F04C
:102F7000BDFE50B3DFF8D0A0871D574525D290F98C
:102F800005303A2B21D101230293D5E72E4A8AE757
:102F9000039B03B3029B002BE7D034BB009B002BA9
:102FA00038D1009FB946002D3FF425AFB3E7012388
:102FB00000931D49224804F07DFB029B43BB009B0C
:102FC000002B7FF47DAF0924A9E700270297B3E720
:102FD000039F002FC6D1002C009B18BF0123009334
:102FE000002D3FF408AF96E76CB101230027009352
:102FF000B1E7002CF9D14F46002D3FF4FCAE8AE733
:1030000000230093D5E7039F002D3FF4F4AE82E741
:10301000082484E7019B002BCBD00027B946002D64
:103020003FF4E9AE77E700BF980C0020980E00202F
:10303000AC1702009015020008160200DC15020011
:10304000E8150200E0150200981000200FB400B54A
:1030500083B0049949B105AA01200192FFF778FED7
:1030600003B05DF804EB04B07047E622044905485C
:1030700004F020FB0B2003B05DF804EB04B07047B4
:1030800090170200181502000FB400B583B0049920
:1030900049B105AA00200192FFF75AFE03B05DF87E
:1030A00004EB04B07047F3220449054804F002FB26
:1030B0000B2003B05DF804EB04B070474C1702001E
:1030C000181502000CB470B582B00D46069969B3AC
:1030D00007AA064601200192FFF73AFE044660B9AE
:1030E00032462946FFF770FE044605B168B1204616
:1030F00002B0BDE8704002B07047034640F20712CC
:103100000E490F4804F0D6FAF1E70E4817F096FD85
:103110000128ECD00B4817F091FD40F21112034644
:103120000649094804F0C6FA0424E0E74FF4807227
:103130000249064804F0BEFA0B24D8E72017020023
:1031400038160200980C00206816020018150200BC
:1031500030B50D461B4A83B0034692E80300009049
:103160008DF804102DB3303368468DF8023017F017
:10317000B9FC0146684600F01DFC0446284617F0DD
:10318000B1FC0146284600F015FC03461C40E4B2A1
:1031900001210D4800F00EFC44B138B100214FF47C
:1031A000FA720846FFF710FE03B030BD022003B0EC
:1031B00030BD40F21D120549054804F07BFA0B2092
:1031C00003B030BDFC160200F8160200041702001E
:1031D000A8160200014800F031BC00BF980C002086
:1031E000014817F02BBD00BF980C0020F8B590B334
:1031F000D0E90032934205460C4613D08668A446B7
:10320000002406EB031E1F01BCE80F00F051CEF8AE
:103210000410CEF80820CEF80C302B6801332B6058
:103220002046F8BDBF221349134804F043FA6F68E3
:103230000A37380100F0FCFB064698B1A96831B1A5
:103240006A68120117F017FAA86800F0F3FBC5E9E5
:1032500001762B68D3E7BB220649084804F02AFA16
:103260000B24DDE7C5220349054804F023FA0124B5
:10327000D6E700BF6822020024180200D41702001B
:10328000681802002DE9F84F0368002B45D0064668
:103290000024424FDFF8108114F0070A05D13846A8
:1032A000FFF7F2FE0546002866D1B5684FEA04191B
:1032B00015EB041B52D0DBF80420002A55D015F87A
:1032C000091001290DD0032940D0002933D00B2546
:1032D0004FF499723249334804F0ECF92846BDE8BE
:1032E000F88F40469BF8081000F0B8FB0028EED09D
:1032F00015F80910DBF804202B4B2C48FFF7C4FE0F
:1033000005460028E4D1BAF1070F0AD033685A1EE7
:10331000A24206D001349C42BED300252846BDE817
:10332000F88F234B234A24491868FFF7CBFE054644
:1033300058BB3368EEE7DBF80830002BDDD140F2F4
:1033400011121E491E4804F0B5F9C0E79BED020BAF
:10335000404600F099FB0028B9D0C9E74FF48672C7
:103360001649184804F0A6F9B1E740F20D121349C6
:10337000154804F09FF9AAE74FF4967208491348DC
:1033800004F098F92846BDE8F88F4FF49D7204497F
:103390000F4804F08FF92846BDE8F88F8C1802001A
:1033A00044220200E019020098110020D419020002
:1033B000A400002074DC0100181A02003022020070
:1033C00074190200CC1802001C1902009C1802009B
:1033D000241A020070B50646314B88B093E8070006
:1033E000304B01AD04AC85E807000FCB07C4238048
:1033F000002E3DD004A8FFF729FE044660B94FF423
:10340000FA7229460120FFF7DFFC044668B108285C
:1034100020D0204608B070BD0346432222492348ED
:1034200004F048F9204608B070BDFFF7D3FE3060C5
:1034300080B3202117F009F818B300F8014B00F011
:10344000FDFA70600028E4D1306808B100F0F2FAAB
:103450000124DEE7FFF7C4FE073014D0FFF7C0FEFB
:10346000542203461049124804F024F90424D0E7FA
:103470000B243E220C490F4804F01CF9204608B0EA
:1034800070BD7460C5E7512207490B4804F012F97A
:103490000A24BEE75B220449084804F00BF9D7E789
:1034A000641B0200701B0200A022020038160200FA
:1034B000DC1A0200601A0200B01A0200101B02009F
:1034C00010B582B002AB0C4603E9030008B100F06E
:1034D000B1FA2CB1204602B0BDE8104000F0AABA03
:1034E00002B010BD10B50C2000F0A2FA044628B1BD
:1034F0000023036043608360204610BDA922024977
:10350000024804F0D7F8F7E780220200801B02008F
:1035100010B52DED028B002384B00446CDE90133B4
:103520000093039300B30846A1B1B0EE408AF0EED9
:10353000608A00F083FA03230246694620468DED37
:10354000028B01928DF80030FFF750FE04B0BDEC05
:10355000028B10BDFF220749074804F0ABF80B208F
:1035600004B0BDEC028B10BDFE220249034804F0FA
:10357000A1F8F4E754220200BC1B0200D417020099
:1035800008B528B183685BB1BDE80840FFF77ABE93
:1035900040F225120649074804F08CF80B2008BDBC
:1035A0004FF493720249044804F084F8F6E700BF30
:1035B00044220200D4170200BC1C020020B338B51C
:1035C00005468068D8B12B68BBB1002402E02B68A7
:1035D000A34212D900EB0410406800F02BFAA8684F
:1035E0002301C25C01340344002AF0D1986800F042
:1035F00021FA2B68A868A342ECD800F01BFA2846F1
:10360000BDE8384000F016BA704700BF30B583B04F
:1036100030B303680446D3B1154B164A16491868EF
:10362000FFF750FD6168154B43F69820002908BF4D
:103630001946E568227A2368002D18BF28460192B2
:1036400000910F4A0F49FFF73DFD03B030BD4FF425
:10365000D2720D490D4804F02DF80B2003B030BD97
:1036600040F2A31208490A4804F024F8F5E700BF25
:10367000A4000020941E0200A01E020074DC0100C1
:10368000781F02008C1F0200DC210200201F0200B4
:10369000D01E020038B5E0B10D4691B10446114983
:1036A00011484FF4DC7204F005F821460120FFF7C1
:1036B0004FFD00B138BD2946BDE838400220FFF774
:1036C00047BD4FF4DB720749084803F0F3FF0B20B6
:1036D00038BD40F2B5120349054803F0EBFF0B205B
:1036E00038BD00BFC4210200941F0200BC1B0200B1
:1036F000A816020038B5002869D043680446002B9C
:103700006CD08368002B70D0C368002B57D0454D18
:10371000454A46492868FFF7D5FC00B138BD014647
:1037200023784FF4FA70424AFFF7CCFC0028F5D119
:103730006368002B60D001463E4A4FF4FA70FFF7F1
:10374000C1FC0028EAD1A368002B5CD001463A4AAC
:103750004FF4FA70FFF7B6FC0028DFD1E368002BC6
:1037600058D000214FF4FA70344AFFF7ABFC002820
:10377000D4D1014601234FF4FA70314AFFF7A2FC7D
:103780000028CBD1606920B1A169FFF783FF002831
:10379000C4D12C4A2C492868FFF794FC0028BDD1DD
:1037A0002A4A2B492868FFF78DFC0028B6D1294BFF
:1037B000294A18682949BDE83840FFF783BC4FF40F
:1037C000E4722749274803F075FF0B2038BD40F20B
:1037D000C5122349244803F06DFFF6E74FF4E37266
:1037E0001F49224803F066FFEFE740F2C7121C4969
:1037F0001F4803F05FFFE8E740F27F121D491E48B3
:1038000003F058FFE1E74FF4C2721C491C4803F073
:1038100051FFDAE740F289121A491B4803F04AFFC8
:10382000D3E700BFA4000020941E0200A01E0200E7
:10383000141D0200841D0200E41D0200441E02004B
:10384000241D0200B01E0200C01E0200541E020011
:10385000641E0200A0000020741E0200841E0200EC
:10386000A4210200E8200200D01E0200382002003D
:10387000902002001C220200341D020008220200D7
:10388000941D0200F4210200F41D020038B528B393
:10389000044600F05FF8F0B1606818B1FFF7B6FEBB
:1038A000054688B9206840B1FFF724FF0546E8B90E
:1038B00023681B690BB1114A1360A3680BB1104A4E
:1038C00013600025284638BD03468A220D490E485C
:1038D00003F0F0FEF6E70225284638BD0B258022CE
:1038E00008490A4803F0E6FE284638BD03469222FE
:1038F0000449074803F0DEFEE4E700BFA000002013
:10390000A4000020942202003C210200D01E0200EC
:103910007021020020B10379022B12D0042B00D0B9
:103920007047002300B58268084983B08DF80720EE
:1039300008681A460DF107010CF0B8FF03B05DF8F6
:1039400004FB0122024B1A70704700BFD8110020FF
:10395000DC11002008B5002201214FF480600CF03A
:10396000F3FD0F4B186040B141F2883200214FF453
:10397000E1300C4B09F0D6FA08B1002008BD0A4925
:103980000A4809F019F90028F7D103460246084908
:10399000064809F0E7F8B0FA80F0400908BD00BF1A
:1039A000D8110020E0110020A8000020E411002020
:1039B000153900008446002310B50C4C0A460C480B
:1039C0006146237009F0AAF860B9237853B94FF023
:1039D0008051084A5160BFF34F8FBFF36F8F237838
:1039E000002BF7D0B0FA80F0400910BDDC110020A8
:1039F000E411002000ED00E038B50B4B1C688CB1E1
:103A00004FF47A7C0A460CFB02F2084D0146A5FBF6
:103A10000252204692090DF01FF800280CBF032027
:103A2000002038BD0C2038BDD8110020D34D6210C5
:103A30000CF072B908B10CF009BA704770B50646BF
:103A400017F050F8451C28460CF066F9044618B1EA
:103A50002A46314616F00FFE204670BD10B528B13B
:103A60000A46064917F07AF8012010BD04463A22AA
:103A70000349044803F01EFE204610BDB022020098
:103A8000F8220200B8220200F0B583B08DED000BE1
:103A9000044678B10B4F02AD00F1100620463946BE
:103AA00015F8012D023417F059F8B442F6D101206F
:103AB00003B0F0BD3A220449044803F0FBFD204660
:103AC00003B0F0BDB0220200F8220200B8220200CA
:103AD00010B5438800F5805292F86F419BB200F216
:103AE000AA4200F22A7E00EB430103F1010C1CB153
:103AF000B1F92C3CA2F88232B1F9AC191FFA8CF35F
:103B0000B3F5A07F22F8021F08BF00239645EAD133
:103B1000838110BD00B50F2286464FF4004C002073
:103B20000CEB400393409E4502F1FF3224BF6044FA
:103B3000AEEB030E531C4FEA5C0CF1D15DF804FBB5
:103B40004FF4B172D0F8981F836907EE901A02FB08
:103B500003F3DB08B8EEE77A07EE903AF8EEE77A7F
:103B6000C7EE876AC0ED086A00F5805191F86F31A1
:103B7000ABB1C36902FB03F3D0F89C2FDB0807EE5F
:103B8000902AB8EEE77A07EE903AF8EEE77A87EEF9
:103B9000876AC6EE267A80ED096AC0ED057A1C4B6D
:103BA000DB8DB3F5727F4FEAD30203D3002380F895
:103BB000E83F70476D2A25D8012380F8E83FDFED04
:103BC000157AF4EEE76AF1EE10FAB0F9E43F18DD89
:103BD000452B16DD8C2BA8BF8C230F4A463B1BB20E
:103BE000A2FB03235B0807EE903A9FED0C6AF8EE08
:103BF000E77A90ED057AC7EE866A77EE667AC0EDD1
:103C0000057A704790F8E83F012BD8D0704700BF85
:103C1000A8270020CDCCCC3D398EE3380000C84227
:103C20002DE9F84F47F2305E0C46016A614F521A97
:103C30007245A8BF724604F5805696F86FC1BA4225
:103C4000B8BF3A46BCF1000F07D0456A5D1B754509
:103C5000A8BF7546BD42B8BF3D4694F8200F002866
:103C60004ED10121544B814618600F460346084649
:103C7000DFF85081DFF850E10FFA82FA84F8201F54
:103C80004A44CEF80020DFF834E188F800102EF81E
:103C900013A0BCF1000F0CD04749DFF824C108285D
:103CA0002CF813500B681D440D6058D9D110ED103D
:103CB00002E0082873D9D1103B46002094F8B22EB8
:103CC00009B201F01BFCDFF8049196F86F31B9F9E5
:103CD000EE80002B48D163889BB204EB4303A3F82A
:103CE000AC89638801339BB2638063889BB2B3F570
:103CF000A07F2EBF002363889BB26380BDE8F88F4E
:103D0000DFF8C080DFF8C0E098F80030072803F142
:103D10000101DEF8009001F0070145D908280FFAEB
:103D200082FA3FD1254F88F8001037F913B027F8F1
:103D300013A0A9EB0B094A44CEF80090CEF800205E
:103D4000BCF1000F2AD01C4F1D4931F913E021F8B6
:103D500013503B68A3EB0E031D443D60002792FB0C
:103D6000F0F195FBF0F5A7E73B4694F8B22E29B2A7
:103D7000012001F0C3FB638896F86F119BB204EB3E
:103D80004303B9F9DE21A3F8AC890029A9D06388DF
:103D90009BB204EB4303A3F82C2CA2E7674692FBEB
:103DA000F0F189E700276BE70130C0B284F8200FFB
:103DB000B4E700BF0080FFFF8C12002078120020C3
:103DC0006812002088120020901200200824002091
:103DD0002DE9F04190F85B64DDE90684002E4FD1B7
:103DE00008F109052D1B122D5ED9C8F80060C8F82E
:103DF0000460A8F8086026606660268103EB410530
:103E00004F0001238B401E432A8080F85B640F2102
:103E10004FF4004C4FF0000EE65FB5F9003006FBA2
:103E200006F6D31A03FB03F376083C4406EB53066D
:103E30000CEB4E038B40B34201F1FF319CBFE644D3
:103E4000F61A4B1C4FEA5C0CF2D128F807E02388E5
:103E5000AEEB030E0FFA8EF100291FFA8EFE1DDB6A
:103E60004FEA5E0E7344238042B12B88D21A11B2FE
:103E7000002992B20DDB520813442B80BDE8F0817B
:103E800003EB410546FA01F3DB074FEA4107BED4D5
:103E9000B7E74A425210524292B2EDE74942491006
:103EA00049421FFA81FEDDE7A8F10205A71E08F1CD
:103EB000080C25F8026FAC4527F8026FF9D19DE791
:103EC0002DE9F04700F5D07800250446464682B03B
:103ED00000F5C67A00F5CB7900F24347BA7953462C
:103EE0002046CDE90098E9B2D200FFF771FF17F83C
:103EF000013F2BB1B6F90020D20092FBF3F31BB2C5
:103F00000135052DA6F8AE3206F10206E6D10327EB
:103F1000524D84F85874B5F89A000321782888BF68
:103F20000427002384F8B47104F24C4C01373CF9A7
:103F3000026F0A46002E04EB410E07DDBEF94EE487
:103F4000B64503DD1A46D9B284F858140133BB4292
:103F5000EDD102EB420294F859349200511D99427E
:103F60004CDB0133DBB284F859343D4AA2FB032316
:103F7000C3F3C70384F85A34234493F84934002B1D
:103F800054D1A0F11403B3F58C7F31D8B4F998540F
:103F900094F8B5118D4239DA324BB4F99A240135CF
:103FA0002DB21D80531CA4F898541BB2994208BF2F
:103FB000002304EB4202002DA2F85C04A4F89A341A
:103FC00016DD002304F25A4202EB450032F8021FCC
:103FD0000B4482421BB2F9D193FBF5F343B14FF48A
:103FE0001652B2FBF3F3C4F8883102B0BDE8F08793
:103FF0000023C4F8883102B0BDE8F087063293424E
:10400000B3DD013BDBB284F85934AEE71E2908D09A
:10401000144AB2F90030182B15D0172BDCBF01332E
:104020001380B4F99A24531C1BB2BFE74FF43471C8
:10403000B1FBF3F104200022C4F89C1402F050F804
:10404000B5F89A009DE71E216B1C1BB22A46A4F806
:1040500098341D4684F8B511A8E700BFA8270020B2
:10406000ABAAAAAA66120020012920D910B5002403
:10407000034600EB8101204653F8042B944653F885
:10408000042B944507DB03DD4FF0FF3C3CB964464D
:104090008B42F3D110BD4FF0010C002CF7D06445DA
:1040A00000F1010EF4D064465FFA8EF0F0E70020D4
:1040B000704700BF03680246002B10B42FDB14BF0B
:1040C0000124002401294FF0000015D9131D02EB33
:1040D000810106E0002A12DB1BD10130C0B29942F7
:1040E0000AD053F8042B002CF4D1002A0EDBF6D0B2
:1040F00099424FF00104F4D15DF8044B7047621C03
:10410000EDD001304FF0FF34C0B2E8E74FF0FF349C
:10411000E5E7012CE3D001300124C0B2DFE74FF026
:10412000FF34CFE7454BB3F87630002B7ED02DE936
:10413000F04F90F85A30834685B0002B73D090F83A
:10414000844100F51A7923464946C06D04F11802EE
:104150004BF822000BF563701A46002BB8BF03F131
:10416000490218325BF82220013B41F8042F8142BA
:10417000F2D1631CDBB2482B8BF8843157D9012371
:1041800000228BF844308BF884218BF8283F0426DA
:104190000BF5DC7301930BF5647302930BF5477316
:1041A0000BF2A91A0BF5D7780BF5DA7503930023F8
:1041B0002C46AC461AF8017FCBF8B83116FB0790B5
:1041C0003A464FB100220CF1B40353F8041F834266
:1041D0000A44FAD192FBF7F24CF8042FE14500F1C2
:1041E0000400EDD139460198FFF73EFF039A7B08A2
:1041F00016FB032103F180439A338AF89A020BEBF2
:10420000830353F8042F54F8040F8B42A2EB0002EF
:10421000C4F8D821F5D12D210298FFF74BFFC245F4
:104220008AF89F02C3D105B0BDE8F08F70479BF8B4
:104230004430002BABD105B0BDE8F08FA82700209B
:1042400040F25E4C2DE9F04F00245F4D80F8214F85
:10425000EF8DB1F900807E1EB6B266459DBF4BF66C
:1042600080340126B4FBF7F42646012A054640F2C5
:104270009780971EBFB201F1020E0846C4460EEBAE
:10428000470E04E0BC45B8BFBC46864508D030F9AF
:10429000027F002BF6D1BC45A8BFBC468645F6D1AF
:1042A0004A4F4FEA4C0C87FB0CE74FEAEC7CCCEB17
:1042B000670E1FFA88F01FFA8EFE002B56D0A0EB77
:1042C0000E031BB2002B56DB14BF01270027012A67
:1042D0004FF0000022DD0123814680460DE0BCF155
:1042E000000F1DDB28D100F1010A5FFA8AFA6EBBCC
:1042F000504601331BB2934210DA31F813C0ACEBD5
:104300000E0C0FFA8CFC002FE9D1BCF1000F10DB72
:10431000EFD0012701331BB29342EEDBBDE8F08FF3
:10432000B7F1FF3FE5D000F1010A5FFA8AFACEBB90
:1043300050464FF0FF37DCE7012FDAD000F1010AD9
:104340005FFA8AFA46B950460127D2E7B8F1000F62
:1043500005D150469846CCE7B8F1000F1CD0B9F112
:10436000000F0BD1C14650469846CEE700EB0E0336
:104370001BB2002BA8DA4FF0FF37A8E7A3EB090B1D
:104380000FFA8BFBBBEB540FECDA95F821AF0AF177
:10439000010A85F821AFB8E7504698460127B9E7EA
:1043A000C4467DE7B8F1000F08D0B9F1000FE5D1A0
:1043B000C146504698464FF0FF379AE75046984618
:1043C0004FF0FF3795E700BFA827002067666666B5
:1043D0002DE9F0472DED028BDFED798AB4EEE80A86
:1043E000F1EE10FAB0EE408A054640F3C380754BFB
:1043F00093F800C00CF1010C5FFA8CF60C2E40F221
:1044000090800C26DFF8C4A1DFF8C4819AF900403F
:104410001E7008EB840282ED000A10EE100A15F0FF
:104420006BFA41EC100B304616F0C6FD51EC100B48
:1044300015F054FD04F101094FFA89F3624F01B2FE
:10444000B3425FFA89F927F8141000F0A1808AF8C6
:10445000003023460020DFED5A7A844604E092EDD6
:10446000008A704637F91410E2B2541E64B2002C70
:10447000B8BF0B3200F1010EB8BF54B2764577EEEB
:10448000887A8C4408EB8402E9D107EE10EA002414
:10449000B8EEC77A002BB8BF09F10B099CFBFEF6FA
:1044A00087EE878AA446B8BF4FFA89F300E0144626
:1044B000D9B237F913204B1E5BB2002BB8BF0B31BA
:1044C000A2EB0602B8BF4BB2A04202FB02CC04F141
:1044D0000102ECD1BCFBFEFC0F224FF40044002093
:1044E00004EB40039340634502F1FF329CBF001987
:1044F000ACEB030C531C4FEA5404F1D115F0DAF97C
:1045000041EC100B6FF00B0016F056FD51EC100B48
:1045100015F00CFDB0EE480ABDEC028B2860BDE83A
:10452000F087DFF8A8A0DFF8A8809AF900401E7095
:1045300008EB840383ED000A10EE100A15F0DCF995
:1045400041EC100B0C2016F037FD51EC100B15F060
:10455000C5FC04F101094FFA89F31B4F01B20C2B82
:104560005FFA89F927F814101BD08AF800300EB3CF
:1045700023466FE7002318EE900A1249134A0B7086
:104580001370B0EE480ABDEC028B2860BDE8F087DE
:104590004FF000091E460B244FF0FF338AF80090BD
:1045A00058E74FF000098AF800901EB10B244FF035
:1045B000FF334FE788EEA88A4FF0000C8CE700BF6E
:1045C00000000000651200201C1200206412002070
:1045D0003412002070B4194D6E89B5F87640CEB90A
:1045E000ACB1931B43F30A0332B25B0193FBF2F3CA
:1045F000B5F888201BB25201B2FBF4F2002BB8BF11
:104600005B421BB2062BA0F8AE2E06DD34462046D8
:1046100070BC7047002CE4D1F8E7094A95F8803067
:10462000D2789A4284BF013385F88030B0F9A03443
:10463000092BD8BF0C46204670BC7047A827002025
:104640004C230200B0F8763FB0F9E61F012B10B5FD
:10465000B0F8E62F0446A0F8501005D90022032038
:1046600001F03EFDB4F850202046B4F8241FFFF7B7
:10467000B1FFA4F8AC0E18B1024BB3FBF0F080B25E
:10468000608510BD00DC05002DE9F04F8B1E052B69
:10469000164687B000F28B8000240D46012247F6B3
:1046A000FF79A24602FA05F7BFB2C7F5A07C0CF16C
:1046B000010C1FFA8CFC00F58053A6F800C093F89B
:1046C0006F3101398A40039393B2009405920493A9
:1046D000A7EB030BC3F10108002213460AEB8A0182
:1046E00000EBC11101F2AA414FEA8A0E31F9024FE3
:1046F0000132234494B2A742F8D80CF1FF32002AC9
:104700004FDD0024CDE9017A0EEB0A0C04994FEA43
:104710008C1C0CEB010200EB4202B2F9AC246444A5
:1047200000EB440743FA05F4121B244CA242B8BF25
:1047300022464A45A8BF4A4601EB0B041CFA84F402
:1047400000EB4404B4F9ACA4B7F9AC44A7F8AC242A
:104750001C1B32880AEB040301EB0804A4B2013AE3
:104760000131944289B2D4DBDDE9017A0EEB0A040F
:1047700001EB841100EB410102EB8414B1F8AC248D
:104780002B41D31A009A00EB44040132A4F8AC3454
:10479000039B5FFA82FA5345009204D3B6F800C037
:1047A0009AE70599E2E7002007B0BDE8F08F4FF4E3
:1047B000A0734FF0FF301380F6E700BF0080FFFFCB
:1047C000F0B5002529462B4600F5805292F86F710E
:1047D000013500EB810C00EB410E441801EB410266
:1047E00001F2DA36E9B200EBC2028F42AEF8D23FF4
:1047F000CCF82C3FAEF8343FCCF8383FAEF8403F11
:10480000CCF8443FAEF84C3FCCF8503FAEF8603F98
:10481000CCF8583F40F82630AEF8643F84F8743F37
:1048200084F8793F84F87B3FCCF8883FCCF8983FF8
:1048300084F8D83F84F8DA3FC2F8A03FC2F8A43F1A
:10484000C2F8A83FC2F8AC3FC2F8B03FC2F8B43FCC
:10485000BED2EF212822C0F8903F80F8783F80F840
:10486000D03FA0F8D63FA0F8763FC0F8DC3FC0F8B4
:10487000E03FC0F8E43F80F8941F80F87D2FF0BD42
:104880002DE9F043082300250026144607460120A1
:1048900085B082F8B23E56615580A2F8AC5EA2F8AF
:1048A000505082F85A50D565C2F8225F88461946A2
:1048B000814600F003FE284694F8B21E00F0FEFD8B
:1048C000344A354B92E80300C4F8AA0184F8AE11CB
:1048D00093E803000B2384F8B31184F8B531C4F8CE
:1048E000AF01A4F81E5F042084F8205F84F84450D0
:1048F00084F85B54C4F8885184F88451A4F859545E
:10490000C4F89C5401F0F8FAA58528462563C4E94B
:104910001255C4E90E55C4F89854656384F8E89FAD
:1049200001F0EAFA484601F0E7FA022001F0E4FA61
:10493000032001F0E1FA04221849194B0D701949BE
:1049400020460D7004F2A4410E6004F595610E60DE
:1049500084F8285FA4F8A05483F8809083F83A2064
:1049600083F85E20FFF72CFF404600F067FF04F558
:104970008053666226626565A4F8B05EA3F86C5148
:1049800083F86E5197F8732083F86F2105B0BDE866
:10499000F08300BF142302001C23020065120020D4
:1049A000A8270020641200202DE9F04FD0F8908F46
:1049B00085B0B8F1010F40F20781002500F5805362
:1049C00093F86F314FF0010B0293C2462B4690F8DB
:1049D0007D4FDFF87C920195C21892F8791F00EBA9
:1049E00043075D00B7F9D26F39F913C00395F9B1E8
:1049F00003F2CA3E00EB8E08D8F80480AAEB080840
:104A0000A04540F2CA8090F8D75FA5420CD9A845CE
:104A100080F0CF800131C9B2664582F8791F0CDD84
:104A2000002940F0BD808FE04FF0000182F8791F2F
:104A3000664500F3878092F8791F0131C9B2A1421F
:104A400082F8791F04D392F8D81F002900F08B80D8
:104A500092F87B1FD9B103F2CE3850F82850AAEB58
:104A6000050E744567D290F8D75FA5420BD9AE45C5
:104A700080F09B800131C9B2664582F87B1F0ADA5B
:104A800000295AD11EE04FF0000182F87B1F6645D5
:104A900016DB92F87B1F0131C9B2A14282F87B1F5D
:104AA00002D392F8DA1FC9B1019A29F813600132D2
:104AB000D3B20192029A9A428ED205B0BDE8F08F2D
:104AC00003F2CE384FF00001012C82F8DA1F40F8D3
:104AD00028A0A7F8406F82F87BBFE5D882F8DABF3C
:104AE00000EB830CDCF8501FDCF838EF574DCCF8A6
:104AF000581FCCF850EF15F80380B7F940CFB8F144
:104B0000010FA7F860CFCFD11FFA8CF8002B64D02B
:104B100092F8741FB7F84CCF5F000F44ACEB080C51
:104B200007F2B477013120F817C082F8741F002211
:104B30004649CA54B8E76645ADDAB7F940CFB4453F
:104B4000C0DCA8E703F2CA3E4FF0000100EB8E0E76
:104B5000012C82F8D81FCEF804A0A7F8346F82F891
:104B600079BF3FF675AF394982F8D8BF01F803B075
:104B700000EB8301D1F82C5FC1F8445FB7F9341F13
:104B8000A7F84C1F002B7FF463AFD0F8E0EFBEF125
:104B9000000F12D1C0F8E01F5AE766457FF74DAF0E
:104BA000B7F9348FB045CFDB47E7002182F87B1F90
:104BB0006DE7002182F8791F3AE7A1EB0E010EEBB9
:104BC000E101C0F8E01F43E77FF477AF204BD0F856
:104BD000D22F1A6005B0BDE8F08F90F8742FB0F8AE
:104BE000767F15460132D2B2012F0392B0F84C2FD6
:104BF0001BD9AEEB010189B2A1F12007742F88BF48
:104C00000021A2EB080200EB450712B2A7F87E1FB5
:104C100005F2B47120F81120039A80F8742FD0F8AF
:104C2000DC2F62B9C0F8DCCF81E70137BFB2022FB9
:104C3000A0F8767FDDD0A2EB080212B2E8E7ACEB79
:104C4000020C02EBEC02C0F8DC2F70E7141200201B
:104C500018120020084600222DE9F04FB34B91F8BE
:104C60007D1F5B8985B0CDE90222A0F8742F80F802
:104C7000D71F73B1DB08A2F1333203EB4303A2FB6E
:104C80000323C3F387030B2B00F20C810C2380F862
:104C90007D3F438842889BB203F58C77BFB2B7F55E
:104CA000A07F24BF283B9FB290F9943FD21A92B2C2
:104CB00002F21716B6B2B6F5A07F24BF293A96B213
:104CC00006F121081FFA88F8B8F5A07F05D36FF424
:104CD0008F7106EB01081FFA88F8002500F5805A4D
:104CE00047F6FF74A946DFF848B2CDF804A020E0EB
:104CF000402B29D007EB090100EB4101B1F9ACC908
:104D0000D0F8882FD0F88C3F6244C0F8882FB1F9D2
:104D10002C2C1344C0F88C3FFFF746FE09F1010923
:104D200090F87D3FB9F1280F80F8D73F75D090F902
:104D3000943F3F2BDCDC01335BB2402B80F8943F87
:104D400002D0002BE8DBD5E74FF0000E7146D0F81B
:104D5000903FCDF800900133C0F8903F019B93F84D
:104D60006FA101EB810208EB821300EB810C00EBD9
:104D70004303DCF8889FB3F9AC3907EB8215A3EB4A
:104D8000A9135B45B8BF5B46A342A8BF234600EB0F
:104D9000450506EB8212B5F9AC5900EB4202B2F9B7
:104DA000AC294D44AD1A04AACCF8885F02EB81050A
:104DB00055F8082C00EB410C002B0EF1010E5FFAA8
:104DC0008EF1ACF8D23FB8BF5B421A448A4545F831
:104DD000082CC6D2013608F10103B6B29BB2B6F573
:104DE000A07F08BF0026B3F5A07F2CBF6FF49F7291
:104DF000984607F1010328BF90449BB228BF1FFAD1
:104E000088F8B3F5A07FDDF8009004D36FF49F73AA
:104E10001F44BFB280E71F467EE7002290F8741F50
:104E2000DDF804A0A0F8842F51B3B0F87E3FA3B3FF
:104E3000012977D0B0F8804F0CB90132D2B22344A7
:104E40009BB29142A0F8843F1ADDB0F8764F012C56
:104E500016D98A1A012492B2DB00B3FBF2F3A14205
:104E6000B0F9682FA0F8E63F80F85A4003D0B0F8B8
:104E70006A3F1A4412B292FBF1F2A0F8642FC265A5
:104E80009AF86F5115B190F8753F8BB990F9943F2E
:104E9000402B21D005B0BDE8F08F012918BF0122B9
:104EA000C8D1EDE7402B88BF402380F87D3FF0E676
:104EB000B0F8762F012AE9D9012BB0F96C2F03D075
:104EC000B0F86E1F0A4412B292FBF3F290F9943FCD
:104ED000A0F8662F402BDDD100210B4690F8D06F53
:104EE00004AC03EB4302013104EB830353F8084C99
:104EF00006EB4202CBB202F57A729D4240F82240A4
:104F0000EED290F8D63F052B9CBF013380F8D63FF8
:104F1000731CDBB2062B08BF002380F8D03F05B01E
:104F2000BDE8F08FA0F8843F8FE700BFA8270020DE
:104F30000080FFFF002A41D08A422DE9F04F15463C
:104F40003AD8044600208B1AC3F34F0902EB090636
:104F500004F5805292F86FA14B46024609F10048D1
:104F60006F1EB6B208F2552819FA87F704F2AC4B57
:104F7000B14528BF002318D24FF0000C02EB820E7F
:104F800008EB8E1107EB8E1E04EB41010BEB4E0E6E
:104F900031F9023F002BB8BF5B428E451CFA83FCFF
:104FA000F6D14FEACC0CBCFBF5F30632013044F8E5
:104FB0002230C2B29245DBD2BDE8F08F704700BF0D
:104FC00090F8B23E4BB9B0F8AC3EB3F5C87F34BFF1
:104FD0000423082380F8B23E7047082B02D0042B2C
:104FE00016D07047B0F8AC3EB3F5C87FF9D20022B6
:104FF00090F81F3F80F81E2F0133DBB2042B80F89E
:105000001F3FEED9042380F81F2F80F8B23E70476F
:10501000B0F8AC3EB3F5DE7FE3D9002290F81E3F36
:1050200080F81F2F0133DBB2042B80F81E3FD8D944
:10503000082380F81E2F80F8B23ED2E72DE9F04118
:1050400000247823782278210646A64682B0CDE94E
:10505000002300F5805393F86F7106EB8405AB696C
:105060004A00B3EB410F3CBFD21AA1EB5201002919
:10507000BCBF002188464FF00F024FF4004C4FF0A8
:105080000000A8BF01FB01F803FB03F30EF1080EBB
:10509000EE444EF8081CA3EB080E0CEB40039340C3
:1050A000734502F1FF329CBF6044AEEB030E531C0C
:1050B0004FEA5C0CF1D10134E4B2BC42A86107D8DC
:1050C00002AB03EB840353F8081C4FEA840EC4E7D9
:1050D00002B0BDE8F08100BF2DE9F84314460D464B
:1050E0001146FFF7B7FD94F9943F402B00F08580FF
:1050F000D4F8E02F002A03DDD4F8DC3F002B09DBD5
:10510000A36CB3F5027F0FDA0023A4F8AC3E63650D
:10511000BDE8F8835B429B0193FBF2F3A4F8E43F04
:10512000A36CB3F5027FEFDBB4F8A074062101375E
:105130003FB204F626722046A4F8A074FFF7A4FA42
:10514000B4F8266F204632463146FFF7F3FE0123BE
:10515000324604F2AC412046FFF772F8DFF888814E
:10516000002381462046FFF76BF8B8F82E30B3F5E0
:105170008D6F58D2814528BF81465FFA89F0A4F827
:10518000220F002857D1B4F8241F102F60D004F547
:1051900080560022104600F0A3FF29462046FFF764
:1051A0004DFF2046FEF7CCFC96F86F31002B63D103
:1051B0002046FFF747FA2046FFF702FF0122618DE4
:1051C000104600F08DFFB8F82E20D308520748BFD4
:1051D0000133A4F8563096F86F31002B98D0002296
:1051E0000220218D00F07CFFB8F8523003EB8303DE
:1051F0009B08A4F85430BDE8F8830020034604F56A
:10520000805696F86F1104EB830C083355F8232071
:10521000DCF8883F013002EBA312C3B29942CCF80C
:10522000982FF0D264E7484538BF4846C0B2A4F88A
:10523000220F0028A7D0F100B1FBF0F1490089B29C
:10524000B1F5946F3ED94FF49461A4F8241F9CE704
:1052500098F8243004F5805688F82C30142396F8FA
:105260006F2188F83A30002A93D088F85E3098F899
:10527000483088F850308CE7D4ED056A9FED177AF6
:10528000F4EEC76AF1EE10FA92DDDFED157A9FEDCC
:10529000156A26EE877A66EEA77A27EE267A77EEEB
:1052A000867A77EE877AB0EE677ABEEEEE7A17EE00
:1052B000103A9AB2C3F3CC03642B0AD94FF4487264
:1052C000228575E7FF2998BF4FF48071A4F8241F49
:1052D0005BE73B2B98BF4FF4F072F1E70000000052
:1052E000000040C20000EC42A827002088B1094B12
:1052F000A3FB0023DB08C3EB4332C3EB820200EBCA
:10530000420080B2042888BF0133642B28BF642385
:1053100018467047CDCCCCCC8B69002B4CD0D1ED4E
:10532000087AF5EEC07AF1EE10FA45DDC72B4FEAA8
:10533000D3022AD9836CB3F5FA5F26D39FED337A73
:10534000F4EEC77AF1EE10FA1FD4DFED316AF4EE15
:10535000E67AF1EE10FA01F2A44393ED007A38D523
:10536000DFED2C6A67EEA67AF4EEC77AF1EE10FA5A
:105370003AD5022201F5805191F86D3181F86E2104
:105380000133DBB281F86D310EE001F5805191F807
:105390006C310133DBB20A2B81F86C3115D9012253
:1053A00091F86D3181F86E21192B05D90122042362
:1053B00080F8FE2081F86E317047B1F9A034062BD9
:1053C0001EDD192A1CD001F580510023A1F86D3192
:1053D0007047F5EE006A67EEA67AF4EEC77AF1EE52
:1053E00010FAEAD50322C5E7B1F9A034062B07DD90
:1053F000192A05D0002301F58051A1F86D317047BD
:1054000001F5805191F86D31CEE700BF0AD7233DF9
:10541000CDCCCC3D9A99193E70B514460E46126B10
:10542000A16B236B05465B1A206BE16BA4F840303F
:10543000636BB2F5027FA3EB0103A4F84230636B08
:10544000A264E3636388A063E3812BDA022322462C
:10545000314685F854302846FFF73EFE04F2A4405A
:1054600094ED080AFEF7B4FF04F5956383ED000A96
:105470002046FEF757FE94F8593413B9312384F8C7
:10548000593494F8443013B12046FEF719FDD4F88E
:1054900088312146DB082846A4F8B03EBDE87040BC
:1054A000FFF73ABF2046FEF713FBCFE700200EB40C
:1054B00083B004AB019303B003B07047012800D957
:1054C00070474FF0000230B54FF0FF344FF6FF75D4
:1054D000094BC0EB001061F3070203EB001C61F302
:1054E0000F224FEA001EACF8C420CCF8C840ACF83C
:1054F000EC4023F80E5030BD082400202DE9F04F79
:105500008F4CC0EB001504EB051595F8C56085B010
:1055100096424FEA001500F0FE80012830D92E1A7D
:1055200004EB061C9CF8C420360134F806E0530056
:10553000DCF8C870013B0EF1010E1FFA83FB0197E6
:105540000BEA0E0E07F1010901370FFA8EF800F091
:10555000F480994524F80680CCF8C89046464FDC84
:10556000BCF9CC302D1A06EBC50604EB051504EB8F
:105570004604A5F8EE30A4F8CC1005B0BDE8F08FD5
:105580004FF6FF784FF0000C00262B1A1F0104EB9A
:105590000313A3F8EC80DFF8B4E107F1C00362F372
:1055A000070C5700013F62F30F2C2EF803C0B046E2
:1055B0003B46B6461FFA87FB5FEA620C18BF01271D
:1055C00000F0B580BC460137FFB252FA07F9F9D1B5
:1055D000DFF8749189F800704FF00009DFF864A1DA
:1055E0002F1A8AF800C04FEA071C04EB0717C7F808
:1055F000C8905F1C24F80C8001D00B46B2E70193E1
:105600005FFA8EF802EB080C5FFA8CFCA5EB000940
:105610000CEA0B0C0CEBC90C08EBC90804EB4C0CA6
:10562000BCF9CC7004EB4808B8F9CCA04FEA0919D2
:1056300006EB46084FEAC10C09EB88080297A14423
:10564000029FCDF80C900CEBCA09ACEBCA0CA0443D
:105650004FEA6C0CA9EB0719C8F808C04FEAC70C51
:10566000039FC8F80CC0B7F9ECC04FEA69099C4524
:10567000BCBF0CF1010CA7F8ECC0019FC8F8049066
:105680000237B7EB820F4ADBA5EB000904EB0913E5
:10569000B3F9EC304FEA0919002BB8BF002334DB13
:1056A00003F102080023274FCDE90160F044724462
:1056B0003F780EF1010E1FFA88F81FFA8EFE0BEAF2
:1056C0000E00A2EB0E0A00B20FFA8AFA00EB4000BD
:1056D0000AFB0AFC09EB8000204446680EF1010E2B
:1056E00006FB0CFC86684CFA07FC06FB0AF64CFA33
:1056F00007FCC0681FFA8EFE9C443E4106EB0C037B
:10570000C6450344DBD1DDE901600F4A127813413D
:1057100043F3CF0326E7012B7FF401AFFDE62B1AFD
:1057200006EBC30304EB4303B3F9CC301AE74FF0A5
:105730000109054F87F800904EE746463CE700BF59
:105740000824002004240020052400200C2400202C
:10575000014B1870704700BF1C26002000B584461E
:105760004FF0080E83B08DF804E09CF807E09CF839
:1057700008C002234EEA0C0C152101AAA6208DF8C0
:1057800005C000F0D5FD03B05DF804FB10B54FF087
:10579000000C8646222482B08DF804C08DF80640A5
:1057A0009EF80AC09EF80B409EF80CE04CEA040CF0
:1057B0004CEA0E0C03232B2101AAA6208DF805C06C
:1057C00000F0B6FD02B010BD8446042310B5DCF82D
:1057D000104082B030210DEB0302A620019400F0AE
:1057E000A7FD02B010BD00BF844600B54FF0040E07
:1057F0009CF814C083B00CFA0EFC4CF00A0C022387
:105800002E210DEB0E02A6208DF805E08DF804C0C8
:1058100000F08EFD03B05DF804FB00BF844600B5C8
:1058200083B0BCF818C00223422101AAA620ADF81B
:1058300004C000F07DFD03B05DF804FB30B5044604
:10584000002583B094F807C001AA01231621A620E1
:105850008DF804C000F06CFD01AA03233821A620B6
:10586000ADF804508DF8065000F062FD29466A46F6
:105870000223A62000F024FDE279217A012342EAE6
:105880000104A620162101AA8DF8044000F050FD65
:1058900003B030BD4FF0800C10B5044682B001AAB1
:1058A00001231521A6208DF804C000F041FD42F22D
:1058B000107001F075FEB4F80EC001AA0223172182
:1058C000A620ADF804C000F033FD41F21A5C6A4630
:1058D00002231921A620ADF800C000F029FD042301
:1058E00021680DEB03020191A6201E2100F020FD8E
:1058F0004FF0040C227D022302FA0CF242F00A025D
:105900008DF804202E210DEB0C02A6208DF805C089
:1059100000F00EFD4FF4807200232220A17AA4F83B
:105920000720E27A8DF80430237B114319438DF868
:10593000060001AA8DF8051003232B21A62000F0F4
:10594000F7FC4FF0080C237AE079152118438DF805
:105950000500022301AAA6208DF804C000F0E8FC8F
:1059600002B010BD70B5802682B0044601AA0123A2
:105970001521A6208DF8046000F0DAFC42F21070C8
:1059800001F00EFE4FF0000E0425222694F80AC006
:1059900084F80CE08DF804E094F80BE00DEB0502C0
:1059A0004CEA0E0C03232B21A6208DF805C08DF8A0
:1059B000066000F0BDFC6A4601232C21A62000F001
:1059C0007FFC227D0223AA4042F00A028DF80420C7
:1059D0002E210DEB0502A6208DF8055000F0A8FC45
:1059E00021690DEB05022B460191A620302100F024
:1059F0009FFCA279217942F030028DF805200DEB51
:105A000005021C2541F00A018DF8041002233521FE
:105A1000A62000F08DFC01AA01233721A6208DF8D5
:105A2000045000F085FC02230825217A01AA1943BD
:105A30008DF80510E3711521A6208DF8045000F0B3
:105A400077FC02B070BD00BF70B5802682B00446FE
:105A500001AA01231521A6208DF8046000F068FC3E
:105A600042F2107001F09CFD4FF0000E042522263A
:105A700094F80AC084F80CE08DF804E094F80BE088
:105A80000DEB05024CEA0E0C03232B21A6208DF80A
:105A900005C08DF8066000F04BFC6A4601232C21FE
:105AA000A62000F00DFC227D0223AA4042F00A024B
:105AB0008DF804202E210DEB0502A6208DF805504F
:105AC00000F036FC22692B46019230210DEB0502D5
:105AD000A62000F02DFC2279A37942F00A0243F0BF
