:100000004891032041F9000069F700003DF9000024
:100010003DF900003DF900003DF900003DF9000008
:1000200000000000000000000000000091C000007F
:100030003DF9000000000000A9C0000011C100004F
:10004000D5DD000079E10000D5DD0000D5DD000040
:10005000F9CE00005DCE000089CF0000D1CF0000B6
:100060009DF0000079D80000B9D90000ADDA000099
:1000700075DB0000D5DD000079E1000079E10000CA
:1000800079E10000F9CE00005DCE000089CF0000CC
:10009000D1CF000079D80000B9D90000ADDA000056
:1000A00075DB0000D5DD000079D80000B9D900006B
:1000B000ADDA000075DB0000D5DD0000F9CE0000F0
:1000C0005DCE000089CF0000D1CF0000000000000D
:1000D0000000000000000000000000000000000020
:1000E0000000000000000000000000000000000010
:1000F0000000000000000000000000000000000000
:1001000000000000000000000000000000000000EF
:1001100000000000000000000000000000000000DF
:1001200000000000000000000000000000000000CF
:1001300000000000000000000000000000000000BF
:1001400000000000000000000000000000000000AF
:10015000000000000000000000000000000000009F
:10016000000000000000000000000000000000008F
:10017000000000000000000000000000000000007F
:10018000000000000000000000000000000000006F
:10019000000000000000000000000000000000005F
:1001A000000000000000000000000000000000004F
:1001B000000000000000000000000000000000003F
:1001C000FFFFFFFFFFFFFFFFFFFFFFFFFFFFFFFF3F
:1001D000FFFFFFFFFFFFFFFFFFFFFFFFFFFFFFFF2F
:1001E000FFFFFFFFFFFFFFFFFFFFFFFFFFFFFFFF1F
:1001F000FFFFFFFFFFFFFFFFFFFFFFFFFFFFFFFF0F
:100200000348044B834202D0034B03B118477047A5
:10021000200400202004002000000000064B0749B5
:10022000C91A891048BF0131491003D0044B0BB1E2
:1002300001481847704700BF200400202004002018
:100240000000000010B5064C237843B9FFF7D8FF33
:10025000044B13B10448AFF300800123237010BD99
:100260004004002000000000086E020008B5054BA5
:100270001BB105490548AFF30080BDE80840FFF712
:10028000CDBF00BF0000000044040020086E020043
:10029000D1F81C2638B50C46054652B19368C3F513
:1002A000AF61012905DDD1180D7401330020936081
:1002B00038BD204600F000FF18B1D4F81C26936822
:1002C000F1E74FF0FF3038BD88B10EB400B5037AC6
:1002D0000246042B82B005D004AB03980449019375
:1002E00002F08AF902B05DF804EB03B07047704782
:1002F00091020000054B01E0984205D01B68002BDD
:10030000FAD14FF0FF307047006A70475C0400205C
:1003100038B5124C246844B1A3421D4602D107E00F
:10032000A54205D02468002CFAD16FF47B7038BD4B
:1003300002FB01F12B6A2C69E41A8C4228BF0C469F
:100340000CB9204638BDE968224619441AF03BF83A
:100350002B6A204623442B6238BD00BF5C0400207A
:1003600010B51C4601F06EFE064B1A6812B905E086
:1003700012681AB19442FBD1002010BD6FF47B705B
:1003800010BD00BF5C040020124A1368F3B198420C
:1003900010B5044602D108E09C4206D01A461B68FC
:1003A000002BF9D16FF47B7010BD23681360237D9F
:1003B00023B9204600F050FE002010BDE0681AF07E
:1003C00017F8204600F048FE0020F6E76FF47B7037
:1003D000704700BF5C04002038B5144B1B6843B164
:1003E0009842044602D107E09C4205D01B68002BCE
:1003F000FAD16FF47B7038BD012A256910D0022A2A
:1004000009D04AB10A4801F063FE00218D4205DBA4
:100410000020216238BD29440029F7DA054838BD9B
:10042000236A19440029F1DAF8E700BF5C040020D0
:10043000A0D4010012FCFFFF2DE9F043DFF81C817E
:100440008DB0D8F80430019391F90030722B3FD170
:100450003F4C0746206830B102AE3246394601F0C3
:10046000D9FC002861D0019C09E0D8F8003002AE28
:100470003946324653F8240001F0CCFC70B32346D1
:10048000013C002BF1D1384601F090FD0446C8B183
:10049000282000F0ADFD8146D0B10023C461436047
:1004A0008360C36003614361836100224846294B36
:1004B000C9F820201968C9F80010C3F800900DB0E1
:1004C000BDE8F083384601F013FD04460028DFD173
:1004D0004FF0000948460DB0BDE8F08305462820DE
:1004E00000F086FD81460028F2D00FCE4FF0000EBE
:1004F00009F1040CACE80F003368CCF80030C9F8FF
:100500001CE0ADB128461449C9F818E007AA01F06B
:1005100081FC0028C9D1394609981AF08FFA0028C1
:10052000C3D00123C9F81830BFE72568019CD6E77E
:10053000019B9C42B9D2D8F80030074953F82400F7
:1005400007AAC9F8185001F065FC0028ADD1E2E710
:10055000600800205C040020ACD40100AC0F020055
:100560002DE9F04781460E461746154C04F10C085C
:1005700054F804ABBAF1000F06D039463046DAF829
:1005800000309847054660B94445F1D132460D49DF
:100590000D481AF08BF90C4806F03CFF0B48BDE8FB
:1005A000F08702464946504600F010FE10B1002088
:1005B000BDE8F0872846DAF80C3098470448EEE7A3
:1005C00000000020BCD401006004002014FCFFFFE8
:1005D00016FCFFFF10B4D3E901346468A4465DF84B
:1005E000044B604710B50446D0E90103DB68984727
:1005F000034620461C4600F0FBFD204610BD00BF10
:10060000D0E901031B691847D0E901035B6918476A
:1006100030B52B4C8DB02368002B3CD00622012135
:10062000022014F0B3FB0346264C013320603AD07D
:10063000002204251146244B009514F0F7FF009585
:1006400001220021204B206814F0F0FF102241F21B
:10065000D06004219FED187B0092CDE9020102AB2E
:100660000D22002120688DED047B14F0DFFF18229D
:100670004FF4A0430DEB02012068ADF81A3014F0DE
:100680008FFD0F21206815F03FFB012200200F4B4A
:100690001A600DB030BD14F05DFC206014F05AFCFF
:1006A0000B4B1860BAE78E210A4B0B4A0B480FF030
:1006B00027F800BFAFF30080680B000002000000C5
:1006C0006808002074080020B4D701006C080020DE
:1006D00064080020E0D40100B8D7010004D501006F
:1006E000182310B5134A88B0106802A901AA019313
:1006F00015F03CF9041E18DB019B182B13D100F0F8
:10070000FFFCA8B14460002400F5C86E0DF1080C90
:10071000BCE80F00AEE80F009CE803008EE8030081
:10072000204608B010BD01F08DFC6FF47A74F7E735
:10073000014CF5E77408002016FCFFFFF0B51F49D7
:10074000044691B009301AF079F920B3EC46002341
:1007500000F10F0104E001333F2B0CF8012B08D00E
:1007600011F9012F0D2AF6D1002240336B4403F812
:10077000402C0023124F0C253E468DF83F3006E0FA
:10078000D6F88410684602F0BBFA0C3E48B9013D29
:10079000F6D211B0F0BD84F83406C4F8380611B0B2
:1007A000F0BD05EB450507EB85073A79BB6884F892
:1007B0003426C4F8383611B0F0BD00BF24D501008E
:1007C00024D70100D0F860162DE9F04111F010088F
:1007D00006463FD1D0F8183611F008011C4627D044
:1007E0009CB300270DE023682046C6F81836276022
:1007F00000F078FC00F056FDD6F81846C6F86806FA
:100800001CB3D4E90253ED1A03F110012A46002368
:100810007068214415F0C0F98542E4D01AF0BCF9A3
:1008200003680B2B1CD10023E3604046BDE8F08138
:1008300023B19A681B681144002BFAD1304600F0AE
:1008400019FE78B9D6F81846CAE73046BDE8F04137
:1008500000F086BED0F85816BDE8F04100F0A6BE04
:1008600001F0F0FB6FF47A78DFE700BF2DE9F84F75
:10087000D0F858A6604BDAF8082005469A4200F0F6
:1008800087800AF5805632695C4FDFF88C8102F16F
:10089000100053460121C2F580525044FFF79AFEE2
:1008A000041E40F3848000F0FDFC3369D5F8602617
:1008B0002344D206C5F8680633617FD47469A34225
:1008C0001CDC82E0D5F818362BB1D5F81C269368CD
:1008D000B3F5AF6F07DB284600F0EEFB00284BD0E6
:1008E000D5F81C269368591C91600AEB0401097C19
:1008F0001A44117433690134A3422BDD0AEB04035B
:1009000093F91420232ADDD193F91130212BD9D169
:1009100004F110030AEB0309394648461AF08EF831
:1009200098B3A0EB090000F1030B0C2241464846A6
:10093000746119F007FE98B10A224846304919F04F
:1009400001FEF0B1D5F858365C44534510D1002370
:100950007361B7E772698ABB002C2FDD326196E7BD
:10096000284601F037F8D5F858365C445345EED0A8
:1009700074610020BDE8F88F01F064FB2148BDE8F8
:10098000F88F284601F092F8DCE701F05BFB99E76D
:10099000DAF80410CB69002B3FF473AF9847B0B975
:1009A000D5F858A6BAF1000F7FF46BAFE1E75046D7
:1009B000FFF718FED5F85836002BDAD103232B7237
:1009C0002846BDE8F84FFFF7FDBE2246C3E7D5F83D
:1009D0003C4628460C49FFF777FC224628460B493F
:1009E000FFF772FC28460A49FFF76EFC2846FFF71E
:1009F000E9FE0848C3E700BF0C00002060D60100F4
:100A000074D6010016FCFFFF38D5010034D6010072
:100A10004CD6010012FCFFFF64D601002DE9F04125
:100A200000F109070446ADF50A7D38469F491AF0E2
:100A300005F828B305462046FFF780FE2B1D94F9E4
:100A4000091094F90A20C4F8143694F90B3094F97B
:100A50000C6042EA012243EA022346EA0326944B51
:100A60009E4213D003F1106303F51F2303F6347382
:100A70009E420BD08F4B9E4240F0D78001F0E2FAAD
:100A8000002528460DF50A7DBDE8F081C4F85C66B6
:100A900004F10C0000F0F4FD8046002800F0B9805D
:100AA00090F900302F2B00F093800346C4F82036D5
:100AB0004146814800F0FCFD4146C4F828067F48C5
:100AC00000F0F6FD4146C4F824067D4800F0F0FD34
:100AD0004146C4F82C067B4800F0EAFD08B119F045
:100AE00055FF734BC4F810069E4200F08180D4F885
:100AF0002006874202D2A842C0F0B880D4F8280667
:100B0000874202D2A842C0F0B480D4F824068742BB
:100B100002D2A842C0F0A780D4F82006D4F82C3620
:100B2000984202D9AB42C0F0988001F0F9F994F8EC
:100B30003436002B54D06449D4F8200602F0E0F893
:100B400000284DD0D4F838160AA819F0B5FAD4F810
:100B500020160AA819F012FB20465C4A0AA9FFF7E2
:100B6000FFFC0546002D72D1D4F85836002B00F05A
:100B70008C809A68002A00F088805868002800F06D
:100B800084809569ADB1D4F82836002B48D0202256
:100B900020460AAB02A9009201F02AF8D4F8583690
:100BA0000AAAD3E9010502A92346AD69A84700288E
:100BB00070D0204600F0B6FED4F860363C4A23F0F0
:100BC00008039642C4F8603656D00123237257E7D3
:100BD00090F90130202B0ABF3D4B431C1B6865E791
:100BE00020463A4AD4F82016FFF7BAFC0546B9E782
:100BF00040463F2119F0D1FA00283FF478AF014672
:100C00000023204601F8013B00F012FE00283FF4CB
:100C10006EAF4FF4C871204600F04AFB2D4D30E70F
:100C20002D4A23461146A847C1E701F00BFA40F2CE
:100C3000F511204600F03CFB0422D4F860364FF05A
:100C4000FF3523F00103C4F86036227219E74FF430
:100C5000CA71204600F02CFB13E7184600F07AFD1D
:100C6000D4F8200661E700F075FD55E700F072FD4D
:100C700044E700F06FFD48E70223204623720DF59C
:100C80000A7DBDE8F041FFF7F1BD01F0DBF96FF43B
:100C90007B75F6E640F29111204600F009FBD4F88E
:100CA0005806FFF79FFC0D4DEBE600BFC0D70100D3
:100CB000205445472054555080D6010090D601005D
:100CC0009CD60100A4D60100B4D60100D0F30100E7
:100CD0005000002015FCFFFFC4D9010010FCFFFFED
:100CE0002DE9F84FAF4EDFF8CC82DFF8CC9201222D
:100CF000D8F80010306814F041F9AB4D3368D9F8DA
:100D000000402B60F4B1A94F0AE00222396814F0C8
:100D100035F963682A68934288BF2B60246884B1E0
:100D20006068431CFAD0237A002B33D0D4F81836ED
:100D3000002BEAD1D4F86036D906E6D42468002C1A
:100D4000EED12B6803F5E8732B60994BD8F80000BF
:100D5000196814F083F9421C074600F01F81D8F887
:100D60000010306814F058F9002840F00081D9F8DC
:100D70000060002E3AD000254FF0020A4FF004091F
:100D800034463668237A042B24D8DFE803F07A4906
:100D9000320E43000122D8F8001014F0EFF860681A
:100DA0002B68984288BF2860C0E7D4F81836002B1B
:100DB00000F09480D8F80010606814F02DF9002835
:100DC00040F0998000F06EFA237A0137032BC4F8C3
:100DD0006806D8D1D4F8683603F5123B00F062FA01
:100DE0000BF5F87B834515D3002EC9D13846BDE8F5
:100DF000F88F2046FFF73AFDD8F8001005466068E6
:100E000014F00AF9002840F084800137002D60D0EA
:100E100084F80890204600F091F9002EB0D1E5E763
:100E2000D4F80C16D4F85836B1F5C06F5B6838D0DA
:100E300004F10905C1F5C06200232944606814F07B
:100E400013FE0546002DC0F28B80D4F80C362B44DF
:100E5000C4F80C3600F026FAD4F81416C4F8680664
:100E600059B1D4F80C3604F10900D4F81026081A48
:100E70001B1A9A421FDD802D1DD0237A012B82D1AF
:100E8000A8E7D8F80010606814F0C6F8002847D129
:100E9000D4F80C36002B5DD1237A002B7FF473AF8E
:100EA00098E7DB69002BCDD000F0FCF9D4F81416DC
:100EB000C4F8680659B1204600F0BAFC054600287F
:100EC0005ED184F808A000F0EDF9C4F868060025AA
:100ED000D3E7237A022B7FF456AF7BE7D4F8603652
:100EE000DB067FF577AFD8F80010606814F094F84F
:100EF00000283FF467AF2046FFF764FC054608B1C1
:100F000084F80890294B02221968606814F05EF892
:100F100058E70122D8F80010606814F057F874E719
:100F2000D4F80C0604F10901C0F5C06201440023A5
:100F3000606814F099FD051E28DDD4F80C362B44AA
:100F4000C4F80C3600F0AEF9D4F80C36C4F86806D4
:100F5000002BA1D02046FFF761FD013705469BE736
:100F600019F01AFE03680B2B18D100256DE7FFF767
:100F7000B7FB00283FF4FBAE07463846BDE8F88FC4
:100F80004FF4C871204600F093F923E719F004FEEE
:100F9000204600F0D3F86FF47A7727E719F0FCFDCC
:100FA000F9E700BF740800207008002064080020E2
:100FB0004C000020680800208808002038B50B4D40
:100FC0002C682CB910E0012010F02AFA2B685BB1D4
:100FD000FFF786FE041EF6DA01F034F8012010F067
:100FE0001FFA2B68002BF3D1204638BD6C08002077
:100FF000F8B500F10C06044630460EF035FD054606
:101000003246002119F078FE0E4F0F4B0F4ED3F8E9
:1010100000C03B680E495A1C336805F108000133D3
:10102000C5E900C4DFF82CE040F804C033600B6869
:101030003A601C44DEF800300C609C4288BFCEF859
:101040000040F8BD840800205800002078080020E7
:10105000800800207C08002070B5124D50F8082C44
:101060002B6804469A42A0F1080603D00E4801F00E
:101070002FF82B6854F8042CA158994204D00B483F
:1010800001F026F854F8042C094C0A49236830462C
:10109000013B23600B68BDE870409B1A0B600EF0AB
:1010A0007DBD00BF58000020C8D70100D8D701007F
:1010B000840800208008002010B504464FF4B16079
:1010C000FFF796FF48B1D4F81C3603B11860D4F886
:1010D0001836C4F81C060BB1446010BDC4F81806DD
:1010E000FAE700BF4268D2F8183613B906E01B6869
:1010F00023B19842FBD10368C2F81836FFF7ACBFA2
:1011000010B540F26C60FFF773FF044690B14FF0EA
:10111000FF3200234260037200F0C4F8064AD4F89C
:101120006036116843F001032160C4F86036146032
:10113000C4F86806204610BD8808002038B505466A
:101140004068431C03D014F0E9F900236B601E4A89
:1011500013684BB19D42196802D132E09D422DD0F7
:101160001A461B68002BF9D1D5F8180688B14268D9
:10117000D2F8183613B906E01B6823B18342FBD1BD
:101180000368C2F81836FFF767FFD5F8180600287D
:10119000EDD1D5F8580608B1FFF724FAD5F8304656
:1011A0003CB120462468FFF757FFC5F83046002CB5
:1011B000F7D12846BDE83840FFF74EBF2B681360D3
:1011C000D2E71160D0E700BF8808002070B505465F
:1011D00041F218000C461646FFF70AFF38B1D4F862
:1011E0005836C0E90165C4600360C4F8580670BD94
:1011F000C26808B5D2F8583643B1984202D10FE020
:10120000984207D01A461B68002BF9D1FFF724FF3C
:10121000002008BD03681360FFF71EFF002008BD13
:101220000368C2F85836FFF717FF002008BD00BF5B
:10123000004870475C00002090F900305C2B27D0FC
:101240002F2B25D091F900205C2A1FD02F2A1DD0EA
:101250002BB300B511F9012B43F0200E42F0200C06
:10126000D2B1E64507D05C2B01D02F2B14D15C2ADC
:1012700001D02F2A10D110F9013F002BEAD191F9AA
:101280000000003818BF01205DF804FB0131DFE7E2
:1012900090F901300130D5E701205DF804FB012011
:1012A000704700BF08B510F0E3F820EAE07008BD11
:1012B000B1F5C87F2DE9F0410F46064600F0A08049
:1012C00040F2911399427DD0B1F5C97F00F0A7801B
:1012D000B1F5CA7F00F0A68040F2F513994200F004
:1012E000A480534D0A46534B5349284619F0DEFA61
:1012F000284619F09FFA03463046DFF838811D442E
:10130000FFF796FF02464D49284619F0CFFA2846C6
:1013100019F090FA05444A4A4A49284619F0C6FA93
:10132000284619F087FA8646DFF834C12C18BCE845
:101330000F0045F80E00DCF80000E360BCF8043054
:101340006160A382A2602061204619F073FA044410
:101350003A463D49204619F0A9FA204619F06AFAA2
:1013600004443A4643462046384919F09FFA20463D
:1013700019F060FAD6F8202604443AB120463449E0
:1013800019F094FA204619F055FA0444314D0FCD66
:10139000616029782060A260E3602174244819F01C
:1013A00049FA002302462249706814F0F5FB706880
:1013B00014F0B4F804234FF0FF323372002072604F
:1013C000BDE8F0811A4D0A46234B1B49284619F007
:1013D0006DFA284619F02EFA034630461D44FFF7F1
:1013E00027FF16490246284619F060FA284619F0E8
:1013F00021FADFF86480D6F820261849054483E7EF
:10140000DFF860800A4D43463A460B49284619F0FA
:101410004DFA284619F00EFA034630466FE7DFF81A
:101420004880EFE7DFF84480ECE7DFF84480E9E745
:101430009008002000D8010014D9010028D901002B
:101440005CD8010074D801009CD80100CCD8010000
:10145000F0D8010000D90100E8D7010034D901001B
:1014600084D8010038D8010024D8010014D8010024
:101470004CD801002DE9F041314F324D3C46064633
:1014800088460FCD0FC42B6882B03846238019F0F0
:10149000D1F905463046FFF7CBFE3D4402462A49C6
:1014A000284619F003FA284619F0C4F90544274ADA
:1014B0002749284619F0FAF9284619F0BBF986465B
:1014C000DFF898C02C18BCE80F0045F80E00DCF8D7
:1014D0000000E3606160A2602061204619F0AAF973
:1014E00004441C49D6F86426204619F0DFF920464A
:1014F00019F0A0F942461849204419F0D7F93846A6
:1015000019F098F90446002339462246706814F011
:1015100043FB0190019BA34209DB0020D6F8603613
:1015200043F00803C6F8603602B0BDE8F08119F058
:1015300033FB03461B686FF47A700193F4E700BF36
:10154000900800205CD9010070D901005CD801002E
:1015500074D8010094D90100A8D9010080D90100F4
:10156000D0F8603610B59A06044617D45B060BD542
:1015700000F068FDD4F858269368DB6993B12146E2
:10158000BDE8104050681847406813F0C7FF4FF09F
:10159000FF32042362602372002010BD00F052FD70
:1015A0000023F8E76FF47B7010BD00BF2DE9F04118
:1015B0000F46D0F86016054611F0080432D04FF0FF
:1015C000010807F5805407F110062A7A032A20D172
:1015D000226952B94FF480523B4601213046FEF752
:1015E000F9FF00280246206145DB00233146686888
:1015F00014F0D2FA002834DB2369B3F5805F0BDAEC
:101600003846FEF7EFFF2846FFF7AAFFB8F1010FB3
:10161000DBD10020BDE8F0810023012023610FF021
:10162000FFFEF3E73846FEF7EFFF214606460222AB
:101630003846FEF7E5FF3846FEF7E6FF034622464A
:101640001C4631463846FEF7DBFFB4F5003F28461E
:101650002146ACBF4FF001084FF0FF38FFF70AFFFB
:10166000AFE719F099FA03680B2BD2D06FF47A70B8
:10167000002BCED0CEE76FF47B70BDE8F08100BFC9
:1016800090F90030202B03DD10F9013F202BFBDC0B
:10169000202B0BD190F90030202B03D110F9013F02
:1016A000202BFBD01F2BD8BF002070470020704795
:1016B0002DE9F8430C46064619F0BCF8244F814644
:1016C00004F5C06807E004223946284618F03AFFBE
:1016D000D0B3A04538D0254696F9003014F901CB97
:1016E0009C45F0D14A463146284601F0EDFA0028E3
:1016F000E9D195F90030202B03DD15F9013F202BAE
:10170000FBDC202B20D195F90030202B03D115F9DB
:10171000013F202BFBD01F2B16DD95F90030202B2D
:101720002B4603DD13F9012F202AFBDC1A4600218A
:1017300002F8011B5B78013B1F2B06D812F8013F12
:10174000013B1F2BFAD900E000252846BDE8F883AD
:10175000C0D9010090F90030202B03DD10F9013FC2
:10176000202BFBDC0023024602F8013B90F901101C
:101770004B1EDBB21F2B05D812F9011F4B1EDBB22B
:101780001F2BF9D9002914BF10460020704700BF55
:1017900030B5864600200EF1FF32144612F9011FC3
:1017A000CBB2A3F1300CBCF1090FA3F16105A1F19B
:1017B000300C06D84FFA8CF3A64503EB0010ECD1A1
:1017C00030BD052DA3F1410304D9052BF8D8A1F1B3
:1017D0003703F1E7A1F15703EEE700BF90F90030BE
:1017E000202B23DD70B5044620262B2B04F10105A8
:1017F0001AD0252B05D02C4694F90030202BF4DC90
:1018000070BD2846FFF7C4FFC2B20346002AF3D0DA
:1018100004F8033B284619F00DF8024621462846F5
:10182000013A19F04FFAE6E72670E4E7704700BF87
:101830002DE9F04F91F9005083B00190002D54D064
:101840000C460B46002704E0202D09DD13F9015F4B
:1018500035B13D2DF8D113F9015F0137002DF8D1D5
:10186000B81CC000FFF7C4FB8146002853D0476076
:10187000002F41D000260546B0460CE004F8018B4D
:10188000A868FFF7ABFF0136E868FFF7A7FFBE4285
:1018900005F1080530D03D212046AC6018F07DFCF4
:1018A0008346A0B382460AF8018B26215046C5F82C
:1018B0000CA018F072FC04460028DFD19BF901202F
:1018C000202A03DD1AF9012F202AFBDC524602F8F8
:1018D000018B9AF80130013B1F2B04D812F8013F0D
:1018E000013B1F2BFAD90024CAE71020FFF780FB29
:1018F000814680B1C9F804500020019AD2F83036F0
:10190000C9F80030C2F8309603B0BDE8F08F034844
:1019100003B0BDE8F08F0248F6E700BF15FCFFFFFB
:1019200016FCFFFF70B52E210546D0F8200619F0F1
:1019300031F800283CD004224FF0000C224E013038
:1019400090F900304FEA0C2C1946F45C04F00304C3
:10195000022C08BFA3F120011F2BC9B2C8BF013060
:10196000013A41EA0C0CEBD1114640F2EB10174C56
:1019700002E0013181421BD054F82230033263452A
:10198000F7D101EB410304EB83039A684B00D207C4
:1019900007D40B4404EB830463680120C5F8643664
:1019A00070BDD5F8602642F01002C5F86026F0E759
:1019B000D5F86036002043F01002054BC5F86026CC
:1019C000C5F8643670BD00BFA16C0200A8F8010024
:1019D000C8D90100F8B50446D0F858062F4900F5DB
:1019E00080535B691033184419F028F8002851D04F
:1019F0000346871D93F90510384618F0CEFB0346C1
:101A0000002847D000253F2138461D7018F0C5FB3F
:101A1000064620B1411C2046FFF70AFF3570202101
:101A2000384618F0BAFB054640B3002339462B7000
:101A300020461B4AFEF794FD202307462B702FBB40
:101A4000D4F85856174BAA6820469A4203D0BDE8EE
:101A5000F840FEF70BBF6968CB69002BF7D09847B9
:101A60003EB1D4F8300606681EB1FFF7F5FAC4F8A7
:101A700030662846FEF7B6FD3846F8BD39462046A2
:101A8000074AFEF76DFD0746002FD9D000F0DAFABD
:101A90003846F8BD00F0D6FA034FEDE7E4D901006F
:101AA000D0F301000C00002011FCFFFF70B5D0F84E
:101AB0005846054604F580535B690D221A331C44D1
:101AC00020460F4918F03EFDA8B994F90D100646BE
:101AD000272901D022290ED10E34204618F05DFBB3
:101AE00048B10021074A017013683BB121462846DE
:101AF000BDE87040184700F0A5FA034E304670BDAF
:101B0000ECD901008C08002011FCFFFF2DE9F04307
:101B1000034613F9012B0446202A01D0092A01D1DA
:101B20001846F5E70546314A15F9013B52F82330CE
:101B30003F2BF9DD2D1A15F1020848BF05F1050804
:101B40006E1E4FEAA808002E08EB48083DDDAE1EC9
:101B500000F1080326F003071F4401F1030E031DE3
:101B600013F9034C13F904CC52F8244052F82CC05A
:101B7000241144EA8C040EF8034C13F9024C13F9B7
:101B800003CC52F8244052F82C904FEAA40C4CEAB3
:101B9000091C0EF802CC13F902CC13F9014C52F8CF
:101BA0002CC052F82440043344EA8C149F420EF8AF
:101BB000014C0EF1030ED3D1B608741C053DC6EBE3
:101BC000867600EB840405EB8606B30709D014F98A
:101BD000023C52F823303F2BCCBFA8F1020808F199
:101BE000FF38002301F80830BDE8F08304DA010073
:101BF0002DE9F047D0F828A6ADF5806D42240E46B9
:101C000017461D46DDF82084DFF884900AF1FF3E78
:101C100003E098422FD119F9014F1EF901CF44F08A
:101C20002003BCF1200F4CF02000F2DC202C22DC41
:101C30000AF1060A504618F0FDFDB0F5806F1AD87B
:101C400050466946FFF762FF3A21684618F0A5FA48
:101C5000B8B1044600233A4604F8013B69463046D1
:101C600018F082FC42462146284618F07DFC0DF50E
:101C7000806DBDE8F0870DF5806DBDE8F04700F0A0
:101C8000E1B9307028700DF5806DBDE8F08700BFB8
:101C9000FCD901004368B3BB2DE9F04303688468B5
:101CA0000D460444C1188C421ED9904695F9006037
:101CB00046F0200791F90C3043F02003BB420FD1CE
:101CC00001F10C09AE46CC46304688B11EF9010F31
:101CD0001CF9013F40F0200243F020039A42F4D067
:101CE0000B6819448C42E5D84FF0FF30BDE8F08313
:101CF0004B688A680B44C8E90232C8F8009088F83B
:101D00001000BDE8F0834FF0FF30704790F90030CD
:101D100003B310B58C1811E0E64507D05C2B01D059
:101D20002F2B13D15C2A01D02F2A0FD111F9013F9B
:101D30000BB9A1420CD010F9013F3BB191F9002041
:101D400043F0200E42F0200C002AE5D1012010BD06
:101D5000184610BD0120704770B591F900300E464D
:101D60005C2B044620D02F2B1ED02068551E58B95E
:101D700019E02F2B0ED02A463046FFF7C7FF88B157
:101D8000A3681C44206870B194F90C3004F10C0174
:101D90005C2BEED12A46304604F10D01FFF7B6FF69
:101DA0000028EDD1204670BD0136013ADDE700BFC5
:101DB00070B591F9006015463EB38C463346002459
:101DC00005E02F2B08BF64461CF9013F33B15C2BA3
:101DD000F7D164461CF9013F002BF8D1ACB10134B6
:101DE000621A04D0012A0BD0FFF7B6FF78B100F1D8
:101DF0000C032A4621466B60BDE87040FFF74ABFDE
:101E00005C2EF4D02F2EEFD1F1E70C46EFE76FF008
:101E1000010070BD034650B103F1140C1B7D083066
:101E20005C2B04D19CF801300BB9FFF7C1BF6FF0F8
:101E3000020070470649074B4A8900200132A3FB84
:101E400002C35B0803EB4303D21A4A81704700BF09
:101E500018270020ABAAAAAA0020704710B5094C89
:101E6000094BA28909480132A3FB02135B0803EB6B
:101E70004303D21A08210068A2810EF023F8002043
:101E800010BD00BF18270020ABAAAAAA9C82002080
:101E9000F0B5044689B011480DF0BEFE104A114D50
:101EA0009089178915F800C0D68895880E49204674
:101EB000D1F894305488D1F89020CDE9057CCDE953
:101EC00003560294D1F89C400194D1F898400749F8
:101ED0000094FEF7F9F9002009B0F0BD780C00205D
:101EE00018270020E000002000810001B40F02004C
:101EF00070B50A4C0546A4F12006B44209D0294623
:101F0000A069FFF799F9A4F1080320B11C46B44277
:101F1000F5D1002070BDE06970BD00BF6411020002
:101F200090F9003013B3024605E0013200F8013C9D
:101F300092F90030D3B1252B00F10100F5D1517891
:101F4000A1F13003DBB2092B1CD81B0192F802C0AF
:101F50000332ACF13001C9B209290AD80B445BB293
:101F600000F8013C92F90030002BE4D1002303700B
:101F70007047ACF1410105299CBFACF1370C53FA15
:101F80008CF3ECE7A1F14103052B9BBF3739C9B2B4
:101F900000230B01DAE700BF4FF0FF30704700BFAE
:101FA00000207047002070470020704770B50A4C31
:101FB0000546A4F12006B44209D02946A069FFF7DE
:101FC0003BF9A4F1080320B11C46B442F5D100202E
:101FD00070BDE06970BD00BFC411020001207047F0
:101FE00008B5FEF7EBFFFCE730B5104C83B0236873
:101FF00013B1002003B030BD0D4B1860FEF708FB95
:102000000028F6D10225226803460A490A480192AF
:1020100088614FF480520949094800950FF0A8F8EB
:102020002068003818BF0120E4E700BF940C0020AE
:10203000540000200C000020DD1F0000E41102000D
:10204000E11F0000EFF31080012383F310881B4B86
:10205000196829B94FF0400C194AD17082F803C0B1
:102060001A6801321A6080F31088164A16485268BE
:1020700011880A0A120152FA81F150F8212022F047
:10208000011222F4404242F0050240F82120EFF311
:102090001081012282F310881A6812B11A68013A7D
:1020A0001A601A681AB98020054BDA70D87081F36B
:1020B0001088064B00BF013BFCD1FAE79C92002040
:1020C000000D08400449020000080840400D0300CC
:1020D00008B5FFF7B7FF00BF70B5146804431DD003
:1020E0000346B3FBF1FC9E46D4685669651ED56075
:1020F00001FB1C35634616F905C08E4504F801CC7A
:10210000EFD21468002C09DA137E1D0706D592F968
:102110001A309468002B18BF013C1460D2E90331D7
:10212000C91AA1420ADA3025591ED16003F8015CB0
:102130001468D2E90331C91A8C42F5DC117E4907D3
:1021400008D538B192F9191021F02000582802D092
:102150006F290BD070BD30205C1ED46003F8011CC9
:10216000D368591ED16003F8010C70BD93F90010BB
:102170003029EFD03021581ED06003F8011C70BD0B
:102180002DE9F84F55EC104B814600222046294698
:10219000594B17F037FD002845D051A3D3E9002350
:1021A0002046294617F02EFD002800F097804EA704
:1021B000D7E900670FF2281BDBE900AB4FF00008FE
:1021C00032463B462046294617F0C0FB08F10A0874
:1021D00052465B4604460D460FFA88F817F012FD8A
:1021E0000028EDD1002220462946444B17F00AFD75
:1021F00098B10026414F32463B462046294617F00B
:10220000A5FB08F1010832463B4604460D460FFA8D
:1022100088F817F0F7FC0028EDD145EC104BA9F831
:102220000080BDE8F88F002200232046294617F0E1
:10223000DFFC38B9002200232046294617F0E2FCD3
:10224000002849D02AA3D3E900232046294617F0C5
:10225000CFFC8046D0B124A7D7E900670FF2900BDE
:10226000DBE900AB4FF0000832463B4620462946EA
:1022700017F042FAA8F10A0852465B4604460D469A
:102280000FFA88F817F0B4FC0028EDD100222046A0
:102290002946194B17F0A2FC0028BED000264FF0AB
:1022A000000A164FDFF850B032463B46204629461A
:1022B00017F022FA08F1FF3852465B4604460D46F5
:1022C0000FFA88F817F08AFC0028EDD145EC104B86
:1022D000A9F80080BDE8F88F80469EE7804681E738
:1022E000000000E876483742000000205FA002426C
:1022F000BBBDD7D9DF7CDB3D0000F03F00002440B0
:10230000F0B590F919401CB1002101201980F0BDF1
:10231000002902DB494209B2F7E730251468661C40
:1023200016602570B0F9006036BB047E670704D5DF
:102330002E251468671C176025704D1C1AD04FF0AD
:10234000FF3C4FF0300E04680BE01468614504F167
:102350000105156084F800E0046804F1FF340460AE
:1023600005D00CF1FF3C0FFA8CFC002CEDD1F643AC
:10237000B14209DB0121C8E72E251468671C1760EC
:1023800025704C1CDBD1F2E70020F0BD2DE9F04FA9
:102390008046002489B0D8F80C30CDE90121D8F866
:1023A00008200DF11A0003EB020AC8F80CA00D4634
:1023B000ADF81A4003930492CDF81CA0FFF7E0FE9D
:1023C00057EC106B002D73D0BDF91A50D8F80030BF
:1023D0009D4204DA2A1DA4BF88F819405B1B013B0B
:1023E000C8F80030294606AB404607AAFFF788FF29
:1023F000019B83F001030293002800F09C80BDF94B
:102400001890D8F80030DDF81CB0994500F3BA8078
:1024100005954C465D463946304617F007FC0FFAE5
:1024200080F9484617F0FEF802460B46304639461A
:1024300016F0AAFF00226D4B17F05EF9AB4609F1CA
:10244000300906460F460BF8019B002C40F08780B0
:10245000D8F80030002B40F08F80019B002B40F01B
:102460008B805C46059DCDF81CB030463946002275
:102470005F4B17F0C7FB00285ED0224621460120A3
:10248000302602E000208A457ED211F9013D2E2B34
:10249000F9D048B93A2BF5D18A450E7076D211F9A8
:1024A000013D2E2B00F08E8001335BB20B70F1E703
:1024B000BDF91A504046294606AB07AAFFF720FF90
:1024C00000289CD1079C98F919206AB3BDF91A30ED
:1024D0002270002BB4BF2D222B224FF00005B8BF75
:1024E0005B42444E6270B8BF1BB20C34214686FB7F
:1024F0000320DA17C2EBA00202EB8200A3EB400339
:1025000003F1300013B2013501F8010B8BB9012D35
:102510000FD0ED43A4F10A024B1913F9011F9C429D
:1025200002F80119F9D1093CC8F8104009B0BDE81A
:10253000F08F0C46DAE7079C029B002BC3D014F9FE
:10254000012C302A06D1631E1C4613F9012D302AB6
:10255000FAD007942E2AB5D1013C0794B3E75D4623
:10256000D8F8003001349C427FF755AFAB46059D4B
:102570005C46CDF81CB078E74FF02E03023505F825
:10258000013CEDE75C4670E70028D5D098F919309A
:10259000D3B1A24538BF23460CD213F9012C2E2A01
:1025A00012BF194613F9022C03F1FF311A704B1EAA
:1025B0009A45F2D36B1CADF81A303123DDE90321C3
:1025C0005354B9E701205EE70134A2450794F4D2E1
:1025D0000AF1FF31AAEB0200891ACAF10103214472
:1025E0001A44204418F06EFBE7E700BF00002440C7
:1025F00000001440676666662DE9F04F0024064629
:102600000D4692469B4695B0374617F9010B252893
:102610008DF829000CD0A0B15146A84788B93E4694
:10262000374617F9010B013425288DF82900F2D11E
:1026300096F90100252808D15146A847002800F046
:10264000A680204615B0BDE8F08F00220CAB0793A2
:102650000893A44B202809931146964616468DF8F8
:102660002A208DF82820A0F123037ED00D2B08D836
:10267000DFE803F0850707070707070789078107D2
:1026800007728DF82900002A00F0BE808DF828100E
:10269000BEF1000F01D08DF82A602A287AD15BF8AC
:1026A000043B002BC0F29B82069301F0100397F9C4
:1026B00001000137002B40F086802E2800F08A8030
:1026C0004FF0FF33049320F020034C2B07F101025D
:1026D00000F09180682800F08E823A46A0F1450310
:1026E0008DF82900561C332B00F29480DFE813F09C
:1026F000FE0092006E019200920092009200920001
:102700009200920092009200920092009200920039
:10271000920092009200E5009200920092009200D6
:102720009200920092009200920092002802DA0138
:10273000FE00FE006E019200DA019200920092000B
:1027400092001D02E500E50092009200390292001D
:10275000E50092009200E500012241F0080117F91E
:10276000010F2028A0F1230380D1002EF7D10646C7
:102770004FF0010EF3E7012241F01001EFE70122D3
:1027800041F00401EBE74FF0010E0646E7E70236A1
:10279000013439E7A0F13003DAB2092A4FF0000220
:1027A0000BD817F9010F5BB202EB820203EB420276
:1027B000A0F13003DEB2092EF3D901F01003069226
:1027C000002B3FF47AAF21F008018DF828102E2855
:1027D0007FF476AF97F901002A2857D197F90200C4
:1027E0005BF8043B0237049320F020034C2B07F1E5
:1027F00001027FF46FAF9DF8283097F9010043F094
:1028000002038DF8283069E71146BEF1000F7FF40E
:1028100042AF42E74FF01909334B002808BF164674
:10282000984607934B4408939DF82870069B9DF9A2
:102830002A009945CDF8109040F35D8117F01007FC
:1028400000F0E2810023059328B15146A8470028F3
:102850007FF4F7AE013409F1FF33002B0493C0F28B
:10286000A8812B464546B0461E4606E0049B01342F
:10287000013B002B0493C0F29A8101355146079524
:1028800015F9010CB0470028F0D0DAE6A0F13003CA
:10289000DAB2092A07F101074FF000020BD817F945
:1028A000010F5BB202EB820203EB4202A0F13003A4
:1028B000D9B20929F3D9049205E76F285BF8043BE4
:1028C00000F0CA81782800F0B381702840F0F081D0
:1028D0000DF14F020792089200228DF82A20102154
:1028E0001846F7E0F41102004C120200662804BFFB
:1028F00000238DF8293000230593049B0BF1070B6F
:10290000002BB8BF06232BF0070BB8BF0493FBE8DE
:102910000289002200234046494617F05FF948B17A
:1029200009F1004303932D23CDF808808DF82A3058
:10293000DDE90289404649464FF0FF32BB4B9DF826
:10294000287017F069F9002840F098814046494600
:1029500000224FF4801317F041F988B140464946F0
:102960000022002317F044F9002840F09C814046E3
:1029700049460022002317F045F9002840F09381D2
:1029800049EC108BC7F38002002104A8FFF7FEFC7E
:10299000DDE907829DF82870A2EB08093907069B3C
:1029A0009DF92A007FF545AF00280CBF1946591E36
:1029B00049457FF73EAF4FF0300C08F801CDA2EB50
:1029C00008094945F9DCCDF81C8032E70123049A57
:1029D0000238002A8DF82900059301D001DA062378
:1029E00004930BF1070B2BF0070BFBE80289002285
:1029F00000234046494617F0F1F848B109F1004379
:102A000001932D23CDF800808DF82A30DDE900896F
:102A1000404649464FF0FF32844B9DF8287017F02E
:102A2000FBF8002840F022814046494600224FF43E
:102A3000801317F0D3F888B140464946002200239E
:102A400017F0D6F8002840F02C8140464946002275
:102A5000002317F0D7F8002840F0238149EC108BB1
:102A6000C7F38002012104A8FFF790FCDDE907828B
:102A70009DF82870A2EB08093907069B9DF92A00EA
:102A80007FF5D7AE00280CBF1946591E49457FF780
:102A9000D0AE4FF0300C08F801CDA2EB0809494543
:102AA000F9DC90E79DF828300BF10402D8074BBF02
:102AB000BBF90000DBF8003003461846002B03DAB0
:102AC0002D2340428DF82A3093460A210DF14F0301
:102AD0000793089304AAFFF7FFFADDE90783A3EB46
:102AE0000809069B9DF8287099459DF92A00CDF8A4
:102AF00010903FF7A3AEA3EB0903002818BF013BDA
:102B000017F010077FF49FAE013B002B059306DA08
:102B10007DE0059B0134013B002B059379DB514699
:102B20002020A8470028F4D08BE59DF82820DBF86A
:102B30000030D2074CBF1C801C600BF1040B63E516
:102B40005BF8042B0DF1310308934FF00109069B4C
:102B50009DF828709DF92A000DF130088DF830207D
:102B600067E65BF8048BB8F1000F00F095804246F1
:102B70000023059312F9013B0792002B00F095808A
:102B80000027049BB946013308EB030007E0134616
:102B9000012713F9011BB94400293DD01A46904280
:102BA000F5D1013A002F37D1B946904636E0354687
:102BB0004646002F3FF428AD059B013B002B0593B3
:102BC00007DA21E5059B0134013B002B0593FFF655
:102BD0001BAD51462020A8470028F3D031E541F035
:102BE00010015B4221F0080197F9010006930137BB
:102BF0008DF82810EBE59DF8283097F9010043F097
:102C000001038DF8283069E54FF0FF330593002765
:102C10001AE69DF92A0017E6A2EB0908CDE907821A
:102C2000069B9DF828709DF92A0002E6FFFFEF7FC2
:102C3000214A09929DF82820D7070DF14F020792EB
:102C400008924FF0000248BF9BB26F288DF82A20EF
:102C50001CD1082118463DE79DF828205107EBD5E7
:102C600004990029E8D101210491E5E7134B9A1D4D
:102C700098464FF0060907930892FDE60F4B9A1D00
:102C800098464FF006090793089287E675287FF467
:102C900026AE0A2118461DE7DFF8288008F1010258
:102CA0006EE7074BE3E7064BE9E799464246B5E78F
:102CB0009DF82820C0E700BF08120200241202007D
:102CC0001C1202002C12020030B5864602E0A3B1AD
:102CD000634512D11EF8013B11F801CBA3F1410568
:102CE000192DACF14105A2EB0E0498BF2033192D2C
:102CF00098BF0CF1200CE042E9D1A3EB0C0030BDF1
:102D000010B591F90040CCB190F90020EAB144F03F
:102D1000200490F9003043F020039C420FD10A4672
:102D2000844605E01CF9013F43F02003734506D1BA
:102D300012F9013F43F0200E002BF3D110BD10F922
:102D4000013F002BE5D1184610BD104610BD00BF55
:102D500038B520B3154D02460B4628464FF4807116
:102D600017F0DEF9041E18DBFD2C14DC104B621981
:102D700019881048295399782B46917071220E4971
:102D800004F048FB2846A11C00F094FCB0FA80F047
:102D90004009400038BD062038BD052038BD6122FD
:102DA0000549064804F036FB0B2038BD980E00207C
:102DB000BCD9010098120200E01302006812020060
:102DC0002DE9F04F4FF0000B8946164685B0DFF82D
:102DD0008481CDE9020B08F2FF174FF40072002145
:102DE000404617F089FF4FF0000A5A4C2046314602
:102DF00000F082FCBAF10D0FC0B242D0002849D1D8
:102E000014F901ABBC42F1D14346862252495348E2
:102E100004F000FB0725434689224F49504804F03F
:102E2000F9FAB9F1000F39D04946404617F006FECD
:102E30000190002861D0484617F0FCFC019BDFF8A8
:102E40002CA11C180134544557D21B563A2B54D18F
:102E50004046444917F0F2FD002873D052464FF027
:102E6000010B21463B48121B17F02CFF039B002B44
:102E700063D1BBF1000F59D10925284605B0BDE843
:102E8000F08F94F900300A2BB8D100231D4624F8A6
:102E9000013CC0E707280546BDD1B5E7029B002BE2
:102EA0003AD031492B4817F0C9FD002843D0DFF84C
:102EB000BCA0841D54453ED290F905303A2B039BAB
:102EC0000CBF0123002403934046264917F0B6FDAA
:102ED00068B1B9F1000F27D04FF0010B002C36D1AB
:102EE000002D3FF47AAF284605B0BDE8F08FBBF166
:102EF000000FEED1002CF3D029E0029B002BD0D1A3
:102F00004046184917F09AFD002818BF4FF0010BF2
:102F1000002D3FF462AFE6E74046124917F08EFD00
:102F200010B9BBF1000FDBD0039B33B90025284655
:102F300005B0BDE8F08F0024C6E70825284605B097
:102F4000BDE8F08FBBF1000FC8D1524689E7074AB0
:102F500087E700BF980C00201C140200BC1202007E
:102F6000081302004013020038130200980E0020DC
:102F70000FB400B583B0049840B105A90191FFF7E3
:102F8000E7FE03B05DF804EB04B07047BF220549CB
:102F9000054804F03FFA0B2003B05DF804EB04B0E1
:102FA000704700BF00140200681202000CB470B534
:102FB00082B0069B63B306460D46184607A90191E9
:102FC000FFF7C6FE044660B932462946FFF7F8FE11
:102FD000044605B160B1204602B0BDE8704002B0C1
:102FE00070470346D3220E490E4804F013FAF2E765
:102FF0000D4817F0CBFC0128EDD00B4817F0C6FCAC
:10300000DD2203460649094804F004FA0424E2E7F5
:10301000CC220349064804F0FDF90B24DBE700BF8E
:10302000B413020044130200980C00207413020031
:1030300068120200014800F081BB00BF980C00201C
:10304000014817F0A3BC00BF980C002070B50646DD
:10305000314B88B093E80700304B01AD04AC85E8F4
:1030600007000FCB07C42380002E3DD004A8FFF734
:103070007FFF044660B94FF4FA7229460120FFF73A
:103080009FFE044668B1082820D0204608B070BDD5
:1030900003462E222249234804F0BCF9204608B0FA
:1030A00070BDFFF7C7FF306080B3202117F075F8BF
:1030B00018B300F8014B00F041FB70600028E4D128
:1030C000306808B100F036FB0124DEE7FFF7B8FFF7
:1030D000073014D0FFF7B4FF3F22034610491248CF
:1030E00004F098F90424D0E70B2429220C490F4856
:1030F00004F090F9204608B070BD7460C5E73C222A
:1031000007490B4804F086F90A24BEE74622044921
:10311000084804F07FF9D7E70415020010150200F3
:10312000B01A0200441302009C140200441402006E
:1031300070140200D014020010B582B002AB0C462D
:1031400003E9030008B100F0F5FA2CB1204602B003
:10315000BDE8104000F0EEBA02B010BD70B50546F3
:1031600008200E4600F0E4FA30B35DB3F6B1044631
:10317000284600F0E3FA03463046236000F0DEFA0A
:103180002368606013B108B1204670BD9C221049CD
:10319000104804F03FF9206800F0CCFA606800F0B5
:1031A000C9FA204600F0C6FA0024EDE79622084945
:1031B000094804F02FF9F7E794220549074804F07D
:1031C00029F9F1E795220249054804F023F9EBE7D4
:1031D0008C1A0200A41502007815020020150200C6
:1031E0004C15020010B582B098B10368BBB14468B9
:1031F00044B100214FF4FA700C4A0094FFF7D6FE58
:1032000002B010BDF3220A490A4804F003F90B206A
:10321000F6E7F1220649084804F0FCF8F7E7F22245
:103220000349064804F0F6F8F1E700BFA4160200CF
:10323000EC19020070160200201502004016020070
:1032400038B5C8B103680446E3B143686BB1FFF712
:10325000C9FF0546206800F06DFA606800F06AFA60
:10326000204600F067FA284638BDCF2208490948B1
:1032700004F0D0F80125F6E7CD220549064804F010
:10328000C9F8F7E7CE220249044804F0C3F8F1E791
:10329000501A0200701602002015020040160200AB
:1032A00038B5C8B1054640210F4800F057FA04462A
:1032B00038B128460C49FFF751FFBDE83840FFF709
:1032C000BFBF0A4B0A481946A82204F0A3F82046BB
:1032D000BDE83840FFF7B4BFDD220649064804F0D8
:1032E00099F80B2038BD00BF980F0020741A020017
:1032F000E8150200341A02004C15020010B504460D
:1033000082B080B110464021CDE900030A4A0B4843
:1033100017F098FA20460949FFF720FF02B0BDE8F0
:103320001040FFF78DBFE2220549064804F072F80D
:103330000B2002B010BD00BF28160200980F00201D
:10334000181A02004C15020010B598B10A4604463E
:103350000C4B0D484021002A0CBF02461A460B4870
:1033600017F070FA20460949FFF7F8FEBDE8104053
:10337000FFF766BFEC220649064804F04BF80B2025
:1033800010BD00BF3016020038160200980F002052
:10339000FC1902004C15020010B582B0B0B10368F0
:1033A000E3B14168114A43F6982C002908BF114641
:1033B000C468027A00910192002C14BF2046604636
:1033C0000B4A0C49FFF7F2FD02B010BD4FF49372A7
:1033D00009490A4804F01EF80B20F5E740F22712CD
:1033E0000549074804F016F8F6E700BFC4D9010004
:1033F00064180200781802009819020008180200E8
:103400003418020038B5002862D043680546002B06
:1034100065D08368002B69D0C368002B50D0414C25
:10342000414A42492068FFF7C1FD00B138BD01465D
:103430002B784FF4FA703E4AFFF7B8FD0028F5D11B
:10344000014601234FF4FA703A4AFFF7AFFD002816
:10345000ECD16B68002B50D00146374A4FF4FA701C
:10346000FFF7A4FD0028E1D1AB68002B4CD0002170
:103470004FF4FA70314AFFF799FD0028D6D1EB6876
:10348000002B48D001462E4A4FF4FA70FFF78EFD0C
:103490000028CBD12B4A2C492068FFF787FD002854
:1034A000C4D12A4A2A492068FFF780FD0028BDD1EF
:1034B000284B294A18682949BDE83840FFF776BDEE
:1034C0004FF49B722649274803F0A4FF0B2038BD18
:1034D00040F233122249244803F09CFFF6E74FF4F0
:1034E0009A721F49214803F095FFEFE740F2351229
:1034F0001B491F4803F08EFFE8E74FF481721D4916
:103500001D4803F087FFE1E740F207121B491C4802
:1035100003F080FFDAE74FF486721A491A4803F085
:1035200079FFD3E7A4000020CC170200D8170200CF
:10353000B8160200C8160200041702004017020065
:103540007C170200E8170200F81702008C1702002F
:103550009C170200A0000020AC170200BC1702005C
:1035600078190200E0180200081802008018020012
:10357000B0180200D8190200D8160200C4190200BF
:1035800014170200B01902005017020038B528B312
:10359000044600F05FF8F0B1606818B1FFF7FCFE78
:1035A000054688B9206840B1FFF72CFF0546E8B909
:1035B00023681B690BB1114A1360A3680BB1104A51
:1035C00013600025284638BD034675220D490E4874
:1035D00003F020FFF6E70225284638BD0B256B22B5
:1035E00008490A4803F016FF284638BD03467D22E5
:1035F0000449074803F00EFFE4E700BFA0000020E5
:10360000A4000020A41A02001019020008180200E9
:103610004419020020B10379022B12D0042B00D0F0
:103620007047002300B58268084983B08DF80720F1
:1036300008681A460DF107010CF0E0FF03B05DF8D1
:1036400004FB0122024B1A70704700BFD80F002004
:10365000DC0F002008B5002201214FF480600CF03F
:103660001BFE0F4B186040B141F2883200214FF42D
:10367000E1300C4B09F0FEFA08B1002008BD0A4900
:103680000A4809F041F90028F7D1034602460849E3
:10369000064809F00FF9B0FA80F0400908BD00BFF4
:1036A000D80F0020E00F0020A8000020E40F002029
:1036B000153600008446002310B50C4C0A460C4811
:1036C0006146237009F0D2F860B9237853B94FF0FE
:1036D0008051084A5160BFF34F8FBFF36F8F23783B
:1036E000002BF7D0B0FA80F0400910BDDC0F0020AD
:1036F000E40F002000ED00E038B50B4B1C688CB1E6
:103700004FF47A7C0A460CFB02F2084D0146A5FBF9
:103710000252204692090DF047F800280CBF032002
:10372000002038BD0C2038BDD80F0020D34D6210CA
:103730000CF09AB908B10CF031BA704770B5064672
:1037400017F078F8451C28460CF08EF9044618B19D
:103750002A46314616F037FE204670BD2DE9F04F5F
:1037600083B08DED000BDDE90023002850D0054625
:103770000E461046194616F059FA83463146284639
:103780005B46284A17F05EF806F1FF380028A84487
:1037900005EB000441DD032E3FD9A0453DD94FF094
:1037A000000904F1080A01E0A0451ED0DDE9006728
:1037B000584615F037FF02460B463046394615F09D
:1037C000E3FD0022184B15F097FFCDE90001DDE97C
:1037D000000116F02BFA00F130035BB22246237091
:1037E00004F8019FA2458346DED1954208D200210C
:1037F00004E0117012F9013D954201D0302BF8D050
:103800002E2B01D130235370012003B0BDE8F08F7F
:103810002A220649064803F0FDFD002003B0BDE85A
:10382000F08F00BFC01A020000002440F41A02000A
:10383000C81A020010B5438800F5805292F86F4113
:103840009BB200F2AA4200F22A7E00EB430103F190
:10385000010C1CB1B1F92C3CA2F88232B1F9AC19BF
:103860001FFA8CF3B3F5A07F22F8021F08BF0023D4
:103870009645EAD1838110BD00B50F2286464FF4EC
:10388000004C00200CEB400393409E4502F1FF32B8
:1038900024BF6044AEEB030E531C4FEA5C0CF1D125
:1038A0005DF804FB4FF4B172D0F8981F836907EEFE
:1038B000901A02FB03F3DB08B8EEE77A07EE903AC2
:1038C000F8EEE77AC7EE876AC0ED086A00F5805126
:1038D00091F86F31ABB1C36902FB03F3D0F89C2FB1
:1038E000DB0807EE902AB8EEE77A07EE903AF8EE9A
:1038F000E77A87EE876AC6EE267A80ED096AC0ED20
:10390000057A1C4BDB8DB3F5727F4FEAD30203D3EC
:10391000002380F8E83F70476D2A25D8012380F8FE
:10392000E83FDFED157AF4EEE76AF1EE10FAB0F950
:10393000E43F18DD452B16DD8C2BA8BF8C230F4AE6
:10394000463B1BB2A2FB03235B0807EE903A9FEDB8
:103950000C6AF8EEE77A90ED057AC7EE866A77EEA4
:10396000667AC0ED057A704790F8E83F012BD8D011
:10397000704700BFA8250020CDCCCC3D398EE33860
:103980000000C8422DE9F84F47F2305E0C46016A4C
:10399000614F521A7245A8BF724604F5805696F8D8
:1039A0006FC1BA42B8BF3A46BCF1000F07D0456AB2
:1039B0005D1B7545A8BF7546BD42B8BF3D4694F82E
:1039C000200F00284ED10121544B814618600F462C
:1039D00003460846DFF85081DFF850E10FFA82FA1B
:1039E00084F8201F4A44CEF80020DFF834E188F83C
:1039F00000102EF813A0BCF1000F0CD04749DFF8DF
:103A000024C108282CF813500B681D440D6058D9A8
:103A1000D110ED1002E0082873D9D1103B460020E8
:103A200094F8B22E09B201F01BFCDFF8049196F86D
:103A30006F31B9F9EE80002B48D163889BB204EB5B
:103A40004303A3F8AC89638801339BB26380638826
:103A50009BB2B3F5A07F2EBF002363889BB2638027
:103A6000BDE8F88FDFF8C080DFF8C0E098F80030DC
:103A7000072803F10101DEF8009001F0070145D9A4
:103A800008280FFA82FA3FD1254F88F8001037F93D
:103A900013B027F813A0A9EB0B094A44CEF8009005
:103AA000CEF80020BCF1000F2AD01C4F1D4931F97F
:103AB00013E021F813503B68A3EB0E031D443D6057
:103AC000002792FBF0F195FBF0F5A7E73B4694F851
:103AD000B22E29B2012001F0C3FB638896F86F1162
:103AE0009BB204EB4303B9F9DE21A3F8AC890029AA
:103AF000A9D063889BB204EB4303A3F82C2CA2E764
:103B0000674692FBF0F189E700276BE70130C0B20E
:103B100084F8200FB4E700BF0080FFFF8C10002066
:103B200078100020681000208810002090100020DD
:103B3000082200202DE9F04190F85B64DDE906845D
:103B4000002E4FD108F109052D1B122D5ED9C8F8A2
:103B50000060C8F80460A8F80860266066602681E6
:103B600003EB41054F0001238B401E432A8080F860
:103B70005B640F214FF4004C4FF0000EE65FB5F987
:103B8000003006FB06F6D31A03FB03F376083C4429
:103B900006EB53060CEB4E038B40B34201F1FF31B1
:103BA0009CBFE644F61A4B1C4FEA5C0CF2D128F895
:103BB00007E02388AEEB030E0FFA8EF100291FFAFF
:103BC0008EFE1DDB4FEA5E0E7344238042B12B88CC
:103BD000D21A11B2002992B20DDB520813442B8085
:103BE000BDE8F08103EB410546FA01F3DB074FEA3C
:103BF0004107BED4B7E74A425210524292B2EDE7B3
:103C00004942491049421FFA81FEDDE7A8F1020549
:103C1000A71E08F1080C25F8026FAC4527F8026FC3
:103C2000F9D19DE72DE9F04700F5D078002504464D
:103C3000464682B000F5C67A00F5CB7900F24347DC
:103C4000BA7953462046CDE90098E9B2D200FFF791
:103C500071FF17F8013F2BB1B6F90020D20092FB9B
:103C6000F3F31BB20135052DA6F8AE3206F10206BC
:103C7000E6D10327524D84F85874B5F89A00032111
:103C8000782888BF0427002384F8B47104F24C4CD0
:103C900001373CF9026F0A46002E04EB410E07DDA6
:103CA000BEF94EE4B64503DD1A46D9B284F858147D
:103CB0000133BB42EDD102EB420294F85934920039
:103CC000511D99424CDB0133DBB284F859343D4A33
:103CD000A2FB0323C3F3C70384F85A34234493F8A5
:103CE0004934002B54D1A0F11403B3F58C7F31D8A3
:103CF000B4F9985494F8B5118D4239DA324BB4F9CD
:103D00009A2401352DB21D80531CA4F898541BB27F
:103D1000994208BF002304EB4202002DA2F85C0484
:103D2000A4F89A3416DD002304F25A4202EB45004F
:103D300032F8021F0B4482421BB2F9D193FBF5F318
:103D400043B14FF41652B2FBF3F3C4F8883102B01A
:103D5000BDE8F0870023C4F8883102B0BDE8F087E1
:103D600006329342B3DD013BDBB284F85934AEE74F
:103D70001E2908D0144AB2F90030182B15D0172B81
:103D8000DCBF01331380B4F99A24531C1BB2BFE784
:103D90004FF43471B1FBF3F104200022C4F89C14F9
:103DA00002F050F8B5F89A009DE71E216B1C1BB27B
:103DB0002A46A4F898341D4684F8B511A8E700BF38
:103DC000A8250020ABAAAAAA66100020012920D9A4
:103DD00010B50024034600EB8101204653F8042B64
:103DE000944653F8042B944507DB03DD4FF0FF3C6A
:103DF0003CB964468B42F3D110BD4FF0010C002C4E
:103E0000F7D0644500F1010EF4D064465FFA8EF0FD
:103E1000F0E70020704700BF03680246002B10B493
:103E20002FDB14BF0124002401294FF0000015D915
:103E3000131D02EB810106E0002A12DB1BD10130C9
:103E4000C0B299420AD053F8042B002CF4D1002AB6
:103E50000EDBF6D099424FF00104F4D15DF8044B2B
:103E60007047621CEDD001304FF0FF34C0B2E8E77C
:103E70004FF0FF34E5E7012CE3D001300124C0B25C
:103E8000DFE74FF0FF34CFE7454BB3F87630002B38
:103E90007ED02DE9F04F90F85A30834685B0002B44
:103EA00073D090F8844100F51A7923464946C06DD5
:103EB00004F118024BF822000BF563701A46002B30
:103EC000B8BF03F1490218325BF82220013B41F8E8
:103ED000042F8142F2D1631CDBB2482B8BF8843172
:103EE00057D9012300228BF844308BF884218BF8BA
:103EF000283F04260BF5DC7301930BF564730293E2
:103F00000BF547730BF2A91A0BF5D7780BF5DA7599
:103F1000039300232C46AC461AF8017FCBF8B83146
:103F200016FB07903A464FB100220CF1B40353F848
:103F3000041F83420A44FAD192FBF7F24CF8042F93
:103F4000E14500F10400EDD139460198FFF73EFF4D
:103F5000039A7B0816FB032103F180439A338AF806
:103F60009A020BEB830353F8042F54F8040F8B428F
:103F7000A2EB0002C4F8D821F5D12D210298FFF759
:103F80004BFFC2458AF89F02C3D105B0BDE8F08F50
:103F900070479BF84430002BABD105B0BDE8F08FE3
:103FA000A825002040F25E4C2DE9F04F00245F4D23
:103FB00080F8214FEF8DB1F900807E1EB6B26645C4
:103FC0009DBF4BF680340126B4FBF7F42646012A48
:103FD000054640F29780971EBFB201F1020E0846D7
:103FE000C4460EEB470E04E0BC45B8BFBC46864550
:103FF00008D030F9027F002BF6D1BC45A8BFBC46E3
:104000008645F6D14A4F4FEA4C0C87FB0CE74FEA46
:10401000EC7CCCEB670E1FFA88F01FFA8EFE002BAB
:1040200056D0A0EB0E031BB2002B56DB14BF0127AA
:104030000027012A4FF0000022DD0123814680463F
:104040000DE0BCF1000F1DDB28D100F1010A5FFA81
:104050008AFA6EBB504601331BB2934210DA31F834
:1040600013C0ACEB0E0C0FFA8CFC002FE9D1BCF1A5
:10407000000F10DBEFD0012701331BB29342EEDBC0
:10408000BDE8F08FB7F1FF3FE5D000F1010A5FFA1C
:104090008AFACEBB50464FF0FF37DCE7012FDAD06B
:1040A00000F1010A5FFA8AFA46B950460127D2E7C1
:1040B000B8F1000F05D150469846CCE7B8F1000F93
:1040C0001CD0B9F1000F0BD1C14650469846CEE73F
:1040D00000EB0E031BB2002BA8DA4FF0FF37A8E766
:1040E000A3EB090B0FFA8BFBBBEB540FECDA95F843
:1040F00021AF0AF1010A85F821AFB8E7504698468A
:104100000127B9E7C4467DE7B8F1000F08D0B9F13F
:10411000000FE5D1C146504698464FF0FF379AE769
:10412000504698464FF0FF3795E700BFA82500207E
:10413000676666662DE9F0472DED028BDFED798A23
:10414000B4EEE80AF1EE10FAB0EE408A054640F30C
:10415000C380754B93F800C00CF1010C5FFA8CF62C
:104160000C2E40F290800C26DFF8C4A1DFF8C48149
:104170009AF900401E7008EB840282ED000A10EEEE
:10418000100A15F061FA41EC100B304616F0BCFD38
:1041900051EC100B15F04AFD04F101094FFA89F3B7
:1041A000624F01B2B3425FFA89F927F8141000F0A8
:1041B000A1808AF8003023460020DFED5A7A844639
:1041C00004E092ED008A704637F91410E2B2541EF2
:1041D00064B2002CB8BF0B3200F1010EB8BF54B26C
:1041E000764577EE887A8C4408EB8402E9D107EEB5
:1041F00010EA0024B8EEC77A002BB8BF09F10B090A
:104200009CFBFEF687EE878AA446B8BF4FFA89F377
:1042100000E01446D9B237F913204B1E5BB2002BD5
:10422000B8BF0B31A2EB0602B8BF4BB2A04202FBF3
:1042300002CC04F10102ECD1BCFBFEFC0F224FF4D6
:104240000044002004EB40039340634502F1FF3239
:104250009CBF0019ACEB030C531C4FEA5404F1D182
:1042600015F0D0F941EC100B6FF00B0016F04CFD7F
:1042700051EC100B15F002FDB0EE480ABDEC028BBC
:104280002860BDE8F087DFF8A8A0DFF8A8809AF9D9
:1042900000401E7008EB840383ED000A10EE100A44
:1042A00015F0D2F941EC100B0C2016F02DFD51EC5D
:1042B000100B15F0BBFC04F101094FFA89F31B4FF9
:1042C00001B20C2B5FFA89F927F814101BD08AF879
:1042D00000300EB323466FE7002318EE900A124910
:1042E000134A0B701370B0EE480ABDEC028B2860C5
:1042F000BDE8F0874FF000091E460B244FF0FF3356
:104300008AF8009058E74FF000098AF800901EB133
:104310000B244FF0FF334FE788EEA88A4FF0000CD4
:104320008CE700BF00000000651000201C1000207A
:10433000641000203410002070B4194D6E89B5F857
:104340007640CEB9ACB1931B43F30A0332B25B01A2
:1043500093FBF2F3B5F888201BB25201B2FBF4F2E2
:10436000002BB8BF5B421BB2062BA0F8AE2E06DDB9
:104370003446204670BC7047002CE4D1F8E7094A67
:1043800095F88030D2789A4284BF013385F8803026
:10439000B0F9A034092BD8BF0C46204670BC70473A
:1043A000A8250020441B0200B0F8763FB0F9E61FB4
:1043B000012B10B5B0F8E62F0446A0F8501005D92F
:1043C0000022032001F03EFDB4F850202046B4F84E
:1043D000241FFFF7B1FFA4F8AC0E18B1024BB3FBDA
:1043E000F0F080B2608510BD00DC05002DE9F04FD3
:1043F0008B1E052B164687B000F28B8000240D46DD
:10440000012247F6FF79A24602FA05F7BFB2C7F5C7
:10441000A07C0CF1010C1FFA8CFC00F58053A6F86F
:1044200000C093F86F3101398A40039393B200942E
:1044300005920493A7EB030BC3F101080022134676
:104440000AEB8A0100EBC11101F2AA414FEA8A0E80
:1044500031F9024F0132234494B2A742F8D80CF14B
:10446000FF32002A4FDD0024CDE9017A0EEB0A0C61
:1044700004994FEA8C1C0CEB010200EB4202B2F9EA
:10448000AC24644400EB440743FA05F4121B244CAB
:10449000A242B8BF22464A45A8BF4A4601EB0B04D8
:1044A0001CFA84F400EB4404B4F9ACA4B7F9AC44AE
:1044B000A7F8AC241C1B32880AEB040301EB0804A8
:1044C000A4B2013A0131944289B2D4DBDDE9017A28
:1044D0000EEB0A0401EB841100EB410102EB8414A2
:1044E000B1F8AC242B41D31A009A00EB44040132FA
:1044F000A4F8AC34039B5FFA82FA5345009204D3CC
:10450000B6F800C09AE70599E2E7002007B0BDE8D9
:10451000F08F4FF4A0734FF0FF301380F6E700BF29
:104520000080FFFFF0B5002529462B4600F580529C
:1045300092F86F71013500EB810C00EB410E4418CD
:1045400001EB410201F2DA36E9B200EBC2028F421E
:10455000AEF8D23FCCF82C3FAEF8343FCCF8383F21
:10456000AEF8403FCCF8443FAEF84C3FCCF8503F5B
:10457000AEF8603FCCF8583F40F82630AEF8643FC4
:1045800084F8743F84F8793F84F87B3FCCF8883F07
:10459000CCF8983F84F8D83F84F8DA3FC2F8A03FBF
:1045A000C2F8A43FC2F8A83FC2F8AC3FC2F8B03F7F
:1045B000C2F8B43FBED2EF212822C0F8903F80F865
:1045C000783F80F8D03FA0F8D63FA0F8763FC0F8FB
:1045D000DC3FC0F8E03FC0F8E43F80F8941F80F86B
:1045E0007D2FF0BD2DE9F043082300250026144659
:1045F0000746012085B082F8B23E56615580A2F888
:10460000AC5EA2F8505082F85A50D565C2F8225FCD
:1046100088461946814600F003FE284694F8B21EEB
:1046200000F0FEFD344A354B92E80300C4F8AA01BD
:1046300084F8AE1193E803000B2384F8B31184F8D7
:10464000B531C4F8AF01A4F81E5F042084F8205FE0
:1046500084F8445084F85B54C4F8885184F8845139
:10466000A4F85954C4F89C5401F0F8FAA5852846DA
:104670002563C4E91255C4E90E55C4F8985465631E
:1046800084F8E89F01F0EAFA484601F0E7FA0220D0
:1046900001F0E4FA032001F0E1FA04221849194B71
:1046A0000D70194920460D7004F2A4410E6004F506
:1046B00095610E6084F8285FA4F8A05483F8809078
:1046C00083F83A2083F85E20FFF72CFF404600F085
:1046D00067FF04F58053666226626565A4F8B05EE4
:1046E000A3F86C5183F86E5197F8732083F86F210B
:1046F00005B0BDE8F08300BF0C1B0200141B0200D4
:1047000065100020A8250020641000202DE9F04F3E
:10471000D0F8908F85B0B8F1010F40F207810025E5
:1047200000F5805393F86F314FF0010B0293C246AE
:104730002B4690F87D4FDFF87C920195C21892F8D5
:10474000791F00EB43075D00B7F9D26F39F913C049
:104750000395F9B103F2CA3E00EB8E08D8F8048045
:10476000AAEB0808A04540F2CA8090F8D75FA5429E
:104770000CD9A84580F0CF800131C9B2664582F8D6
:10478000791F0CDD002940F0BD808FE04FF0000163
:1047900082F8791F664500F3878092F8791F01310E
:1047A000C9B2A14282F8791F04D392F8D81F002918
:1047B00000F08B8092F87B1FD9B103F2CE3850F80D
:1047C0002850AAEB050E744567D290F8D75FA54232
:1047D0000BD9AE4580F09B800131C9B2664582F8A5
:1047E0007B1F0ADA00295AD11EE04FF0000182F83F
:1047F0007B1F664516DB92F87B1F0131C9B2A142CF
:1048000082F87B1F02D392F8DA1FC9B1019A29F806
:1048100013600132D3B20192029A9A428ED205B04D
:10482000BDE8F08F03F2CE384FF00001012C82F882
:10483000DA1F40F828A0A7F8406F82F87BBFE5D8C0
:1048400082F8DABF00EB830CDCF8501FDCF838EF9D
:10485000574DCCF8581FCCF850EF15F80380B7F936
:1048600040CFB8F1010FA7F860CFCFD11FFA8CF875
:10487000002B64D092F8741FB7F84CCF5F000F4440
:10488000ACEB080C07F2B477013120F817C082F8BE
:10489000741F00224649CA54B8E76645ADDAB7F935
:1048A00040CFB445C0DCA8E703F2CA3E4FF0000198
:1048B00000EB8E0E012C82F8D81FCEF804A0A7F8CA
:1048C000346F82F879BF3FF675AF394982F8D8BFA7
:1048D00001F803B000EB8301D1F82C5FC1F8445F0D
:1048E000B7F9341FA7F84C1F002B7FF463AFD0F843
:1048F000E0EFBEF1000F12D1C0F8E01F5AE76645A5
:104900007FF74DAFB7F9348FB045CFDB47E70021D4
:1049100082F87B1F6DE7002182F8791F3AE7A1EB4F
:104920000E010EEBE101C0F8E01F43E77FF477AF23
:10493000204BD0F8D22F1A6005B0BDE8F08F90F868
:10494000742FB0F8767F15460132D2B2012F039250
:10495000B0F84C2F1BD9AEEB010189B2A1F12007B1
:10496000742F88BF0021A2EB080200EB450712B2AA
:10497000A7F87E1F05F2B47120F81120039A80F881
:10498000742FD0F8DC2F62B9C0F8DCCF81E7013793
:10499000BFB2022FA0F8767FDDD0A2EB080212B2E0
:1049A000E8E7ACEB020C02EBEC02C0F8DC2F70E79E
:1049B0001410002018100020084600222DE9F04FA6
:1049C000B34B91F87D1F5B8985B0CDE90222A0F839
:1049D000742F80F8D71F73B1DB08A2F1333203EBD9
:1049E0004303A2FB0323C3F387030B2B00F20C81C9
:1049F0000C2380F87D3F438842889BB203F58C7777
:104A0000BFB2B7F5A07F24BF283B9FB290F9943F77
:104A1000D21A92B202F21716B6B2B6F5A07F24BF30
:104A2000293A96B206F121081FFA88F8B8F5A07F56
:104A300005D36FF48F7106EB01081FFA88F8002583
:104A400000F5805A47F6FF74A946DFF848B2CDF862
:104A500004A020E0402B29D007EB090100EB410125
:104A6000B1F9ACC9D0F8882FD0F88C3F6244C0F8B7
:104A7000882FB1F92C2C1344C0F88C3FFFF746FE69
:104A800009F1010990F87D3FB9F1280F80F8D73F6F
:104A900075D090F9943F3F2BDCDC01335BB2402BA7
:104AA00080F8943F02D0002BE8DBD5E74FF0000EF2
:104AB0007146D0F8903FCDF800900133C0F8903F98
:104AC000019B93F86FA101EB810208EB821300EBCD
:104AD000810C00EB4303DCF8889FB3F9AC3907EB9A
:104AE0008215A3EBA9135B45B8BF5B46A342A8BFE1
:104AF000234600EB450506EB8212B5F9AC5900EBF5
:104B00004202B2F9AC294D44AD1A04AACCF8885F30
:104B100002EB810555F8082C00EB410C002B0EF13F
:104B2000010E5FFA8EF1ACF8D23FB8BF5B421A4477
:104B30008A4545F8082CC6D2013608F10103B6B201
:104B40009BB2B6F5A07F08BF0026B3F5A07F2CBFAF
:104B50006FF49F72984607F1010328BF90449BB2FF
:104B600028BF1FFA88F8B3F5A07FDDF8009004D3C2
:104B70006FF49F731F44BFB280E71F467EE7002299
:104B800090F8741FDDF804A0A0F8842F51B3B0F89A
:104B90007E3FA3B3012977D0B0F8804F0CB9013222
:104BA000D2B223449BB29142A0F8843F1ADDB0F800
:104BB000764F012C16D98A1A012492B2DB00B3FB7E
:104BC000F2F3A142B0F9682FA0F8E63F80F85A400E
:104BD00003D0B0F86A3F1A4412B292FBF1F2A0F887
:104BE000642FC2659AF86F5115B190F8753F8BB973
:104BF00090F9943F402B21D005B0BDE8F08F0129FA
:104C000018BF0122C8D1EDE7402B88BF402380F8B0
:104C10007D3FF0E6B0F8762F012AE9D9012BB0F9F3
:104C20006C2F03D0B0F86E1F0A4412B292FBF3F25D
:104C300090F9943FA0F8662F402BDDD100210B4660
:104C400090F8D06F04AC03EB4302013104EB830313
:104C500053F8084C06EB4202CBB202F57A729D4241
:104C600040F82240EED290F8D63F052B9CBF01338E
:104C700080F8D63F731CDBB2062B08BF002380F8F8
:104C8000D03F05B0BDE8F08FA0F8843F8FE700BFAC
:104C9000A82500200080FFFF002A41D08A422DE98C
:104CA000F04F15463AD8044600208B1AC3F34F093B
:104CB00002EB090604F5805292F86FA14B460246BA
:104CC00009F100486F1EB6B208F2552819FA87F7A5
:104CD00004F2AC4BB14528BF002318D24FF0000CB2
:104CE00002EB820E08EB8E1107EB8E1E04EB4101E6
:104CF0000BEB4E0E31F9023F002BB8BF5B428E45E5
:104D00001CFA83FCF6D14FEACC0CBCFBF5F306325F
:104D1000013044F82230C2B29245DBD2BDE8F08FB8
:104D2000704700BF90F8B23E4BB9B0F8AC3EB3F557
:104D3000C87F34BF0423082380F8B23E7047082B95
:104D400002D0042B16D07047B0F8AC3EB3F5C87F44
:104D5000F9D2002290F81F3F80F81E2F0133DBB2FA
:104D6000042B80F81F3FEED9042380F81F2F80F812
:104D7000B23E7047B0F8AC3EB3F5DE7FE3D9002217
:104D800090F81E3F80F81F2F0133DBB2042B80F810
:104D90001E3FD8D9082380F81E2F80F8B23ED2E7F4
:104DA0002DE9F04100247823782278210646A64692
:104DB00082B0CDE9002300F5805393F86F7106EBC4
:104DC0008405AB694A00B3EB410F3CBFD21AA1EB9B
:104DD00052010029BCBF002188464FF00F024FF45A
:104DE000004C4FF00000A8BF01FB01F803FB03F3E8
:104DF0000EF1080EEE444EF8081CA3EB080E0CEB67
:104E000040039340734502F1FF329CBF6044AEEB18
:104E1000030E531C4FEA5C0CF1D10134E4B2BC42E6
:104E2000A86107D802AB03EB840353F8081C4FEAD0
:104E3000840EC4E702B0BDE8F08100BF2DE9F8435D
:104E400014460D461146FFF7B7FD94F9943F402BE9
:104E500000F08580D4F8E02F002A03DDD4F8DC3F91
:104E6000002B09DBA36CB3F5027F0FDA0023A4F853
:104E7000AC3E6365BDE8F8835B429B0193FBF2F3B4
:104E8000A4F8E43FA36CB3F5027FEFDBB4F8A074A1
:104E9000062101373FB204F626722046A4F8A0741A
:104EA000FFF7A4FAB4F8266F204632463146FFF7E2
:104EB000F3FE0123324604F2AC412046FFF772F8BC
:104EC000DFF88881002381462046FFF76BF8B8F8A9
:104ED0002E30B3F58D6F58D2814528BF81465FFAD9
:104EE00089F0A4F8220F002857D1B4F8241F102FFE
:104EF00060D004F580560022104600F0A3FF29463A
:104F00002046FFF74DFF2046FEF7CCFC96F86F31A8
:104F1000002B63D12046FFF747FA2046FFF702FF38
:104F20000122618D104600F08DFFB8F82E20D308C5
:104F3000520748BF0133A4F8563096F86F31002B62
:104F400098D000220220218D00F07CFFB8F852306A
:104F500003EB83039B08A4F85430BDE8F8830020DA
:104F6000034604F5805696F86F1104EB830C083362
:104F700055F82320DCF8883F013002EBA312C3B2BE
:104F80009942CCF8982FF0D264E7484538BF48469C
:104F9000C0B2A4F8220F0028A7D0F100B1FBF0F1B5
:104FA000490089B2B1F5946F3ED94FF49461A4F8E9
:104FB000241F9CE798F8243004F5805688F82C309C
:104FC000142396F86F2188F83A30002A93D088F895
:104FD0005E3098F8483088F850308CE7D4ED056A98
:104FE0009FED177AF4EEC76AF1EE10FA92DDDFED6D
:104FF000157A9FED156A26EE877A66EEA77A27EE78
:10500000267A77EE867A77EE877AB0EE677ABEEE0A
:10501000EE7A17EE103A9AB2C3F3CC03642B0AD996
:105020004FF44872228575E7FF2998BF4FF48071CD
:10503000A4F8241F5BE73B2B98BF4FF4F072F1E715
:1050400000000000000040C20000EC42A825002043
:1050500088B1094BA3FB0023DB08C3EB4332C3EB4E
:10506000820200EB420080B2042888BF0133642B27
:1050700028BF642318467047CDCCCCCC8B69002B5D
:105080004CD0D1ED087AF5EEC07AF1EE10FA45DD9C
:10509000C72B4FEAD3022AD9836CB3F5FA5F26D324
:1050A0009FED337AF4EEC77AF1EE10FA1FD4DFEDFC
:1050B000316AF4EEE67AF1EE10FA01F2A44393EDD0
:1050C000007A38D5DFED2C6A67EEA67AF4EEC77A5F
:1050D000F1EE10FA3AD5022201F5805191F86D31C6
:1050E00081F86E210133DBB281F86D310EE001F5FC
:1050F000805191F86C310133DBB20A2B81F86C31AD
:1051000015D9012291F86D3181F86E21192B05D93D
:105110000122042380F8FE2081F86E317047B1F936
:10512000A034062B1EDD192A1CD001F58051002366
:10513000A1F86D317047F5EE006A67EEA67AF4EEDD
:10514000C77AF1EE10FAEAD50322C5E7B1F9A03427
:10515000062B07DD192A05D0002301F58051A1F89F
:105160006D31704701F5805191F86D31CEE700BF88
:105170000AD7233DCDCCCC3D9A99193E70B5144643
:105180000E46126BA16B236B05465B1A206BE16B1D
:10519000A4F84030636BB2F5027FA3EB0103A4F8DF
:1051A0004230636BA264E3636388A063E3812BDA1C
:1051B00002232246314685F854302846FFF73EFE4A
:1051C00004F2A44094ED080AFEF7B4FF04F59563D9
:1051D00083ED000A2046FEF757FE94F8593413B9C0
:1051E000312384F8593494F8443013B12046FEF743
:1051F00019FDD4F888312146DB082846A4F8B03ED2
:10520000BDE87040FFF73ABF2046FEF713FBCFE73B
:1052100000200EB483B004AB019303B003B0704719
:10522000012800D970474FF0000230B54FF0FF342D
:105230004FF6FF75094BC0EB001061F3070203EB5B
:10524000001C61F30F224FEA001EACF8C420CCF81A
:10525000C840ACF8EC4023F80E5030BD08220020C6
:105260002DE9F04F8F4CC0EB001504EB051595F8B8
:10527000C56085B096424FEA001500F0FE80012817
:1052800030D92E1A04EB061C9CF8C420360134F8E1
:1052900006E05300DCF8C870013B0EF1010E1FFA66
:1052A00083FB01970BEA0E0E07F1010901370FFA94
:1052B0008EF800F0F480994524F80680CCF8C89068
:1052C00046464FDCBCF9CC302D1A06EBC50604EB84
:1052D000051504EB4604A5F8EE30A4F8CC1005B093
:1052E000BDE8F08F4FF6FF784FF0000C00262B1A28
:1052F0001F0104EB0313A3F8EC80DFF8B4E107F11E
:10530000C00362F3070C5700013F62F30F2C2EF825
:1053100003C0B0463B46B6461FFA87FB5FEA620C05
:1053200018BF012700F0B580BC460137FFB252FA22
:1053300007F9F9D1DFF8749189F800704FF000098E
:10534000DFF864A12F1A8AF800C04FEA071C04EBAB
:105350000717C7F8C8905F1C24F80C8001D00B46D3
:10536000B2E701935FFA8EF802EB080C5FFA8CFC4F
:10537000A5EB00090CEA0B0C0CEBC90C08EBC908F7
:1053800004EB4C0CBCF9CC7004EB4808B8F9CCA089
:105390004FEA091906EB46084FEAC10C09EB8808E9
:1053A0000297A144029FCDF80C900CEBCA09ACEB1C
:1053B000CA0CA0444FEA6C0CA9EB0719C8F808C046
:1053C0004FEAC70C039FC8F80CC0B7F9ECC04FEA0E
:1053D00069099C45BCBF0CF1010CA7F8ECC0019F0A
:1053E000C8F804900237B7EB820F4ADBA5EB00093F
:1053F00004EB0913B3F9EC304FEA0919002BB8BFDD
:10540000002334DB03F102080023274FCDE90160BC
:10541000F04472443F780EF1010E1FFA88F81FFA2B
:105420008EFE0BEA0E00A2EB0E0A00B20FFA8AFA09
:1054300000EB40000AFB0AFC09EB800020444668B0
:105440000EF1010E06FB0CFC86684CFA07FC06FB0D
:105450000AF64CFA07FCC0681FFA8EFE9C443E41D7
:1054600006EB0C03C6450344DBD1DDE901600F4ABE
:105470001278134143F3CF0326E7012B7FF401AFEA
:10548000FDE62B1A06EBC30304EB4303B3F9CC3060
:105490001AE74FF00109054F87F800904EE746469E
:1054A0003CE700BF08220020042200200522002043
:1054B0000C220020014B1870704700BF1C240020F4
:1054C00000B584464FF0080E83B08DF804E09CF8D8
:1054D00007E09CF808C002234EEA0C0C152101AA33
:1054E000A6208DF805C000F0D5FD03B05DF804FBE3
:1054F00010B54FF0000C8646222482B08DF804C00F
:105500008DF806409EF80AC09EF80B409EF80CE00D
:105510004CEA040C4CEA0E0C03232B2101AAA62012
:105520008DF805C000F0B6FD02B010BD844604231E
:1055300010B5DCF8104082B030210DEB0302A6203C
:10554000019400F0A7FD02B010BD00BF844600B575
:105550004FF0040E9CF814C083B00CFA0EFC4CF013
:105560000A0C02232E210DEB0E02A6208DF805E079
:105570008DF804C000F08EFD03B05DF804FB00BFA1
:10558000844600B583B0BCF818C00223422101AAAA
:10559000A620ADF804C000F07DFD03B05DF804FB6B
:1055A00030B50446002583B094F807C001AA012352
:1055B0001621A6208DF804C000F06CFD01AA03237B
:1055C0003821A620ADF804508DF8065000F062FD99
:1055D00029466A460223A62000F024FDE279217ABA
:1055E000012342EA0104A620162101AA8DF80440F5
:1055F00000F050FD03B030BD4FF0800C10B50446F4
:1056000082B001AA01231521A6208DF804C000F064
:1056100041FD42F2107001F075FEB4F80EC001AA0F
:1056200002231721A620ADF804C000F033FD41F29B
:105630001A5C6A4602231921A620ADF800C000F0CA
:1056400029FD042321680DEB03020191A6201E21F0
:1056500000F020FD4FF0040C227D022302FA0CF230
:1056600042F00A028DF804202E210DEB0C02A62038
:105670008DF805C000F00EFD4FF48072002322204B
:10568000A17AA4F80720E27A8DF80430237B114335
:1056900019438DF8060001AA8DF8051003232B216C
:1056A000A62000F0F7FC4FF0080C237AE0791521D2
:1056B00018438DF80500022301AAA6208DF804C026
:1056C00000F0E8FC02B010BD70B5802682B0044640
:1056D00001AA01231521A6208DF8046000F0DAFC50
:1056E00042F2107001F00EFE4FF0000E042522264B
:1056F00094F80AC084F80CE08DF804E094F80BE00C
:105700000DEB05024CEA0E0C03232B21A6208DF88D
:1057100005C08DF8066000F0BDFC6A4601232C210F
:10572000A62000F07FFC227D0223AA4042F00A025C
:105730008DF804202E210DEB0502A6208DF80550D2
:1057400000F0A8FC21690DEB05022B460191A62073
:10575000302100F09FFCA279217942F030028DF8CF
:1057600005200DEB05021C2541F00A018DF80410FF
:1057700002233521A62000F08DFC01AA0123372148
:10578000A6208DF8045000F085FC02230825217A1C
:1057900001AA19438DF80510E3711521A6208DF893
:1057A000045000F077FC02B070BD00BF70B58026D9
:1057B00082B0044601AA01231521A6208DF80460B9
:1057C00000F068FC42F2107001F09CFD4FF0000EFA
:1057D0000425222694F80AC084F80CE08DF804E031
:1057E00094F80BE00DEB05024CEA0E0C03232B2181
:1057F000A6208DF805C08DF8066000F04BFC6A46C7
:1058000001232C21A62000F00DFC227D0223AA40BA
:1058100042F00A028DF804202E210DEB0502A6208D
:105820008DF8055000F036FC22692B46019230219C
:105830000DEB0502A62000F02DFC2279A37942F0A1
:105840000A0243F030038DF804208DF805300DEB8B
:10585000050202233521A62000F01CFC4FF01C0C91
:105860000DEB050201233721A6208DF804C000F0BE
:1058700011FC4FF0080C237A15212B438DF80530CD
:105880000DEB05020223E571A6208DF804C000F09F
:1058900001FC02B070BD00BF70B50C46064615464F
:1058A000032338212246A62000F0BCFB2378737521
:1058B000627893429CBF2033DBB2B2759B1AA17809
:1058C000DBB25A08F1752B706A70A378AB7070BDAB
:1058D00003460A46A6203B2103EB430300F0A2BB8C
:1058E000B8B100B502EB800091F802C091F801E078
:1058F0000B784FEA0C4C43EA0E230CF4403C43EA8D
:105900000C0342F8043B904201F10301ECD15DF835
:1059100004FB70472DE9F041B54C82B0019423B9E6
:1059200004240123048680F8293000EB8206336AC0
:105930000FFA82FE002B40F08D804FF4403301249B
:1059400033624FF4C01C0477002A4FD1048ABCFB99
:10595000F4FCBCF5B04F4FD841F27074A44538BF89
:10596000A44647F2305500EB4E0EBEF82E70042FC1
:1059700094BF64462C46A3EB040888453FD9A3F5A1
:10598000EA44303C8C4284BF0021AEF82E10002A3D
:1059900069D002AC418A04EB420434F8044C08316B
:1059A0008C4240F3B8800123418280F82C30BEF84D
:1059B0002E30042B4AD8002380F8293090F82A3062
:1059C000002B40F0838090F82A3063B990F828309B
:1059D0004BB190F8293033B10123202280F82A30CE
:1059E000428180F82B3002B0BDE8F081448ABCFBD4
:1059F000F4FCBCF5B04FAFD94FF4B04CB1E71C4448
:105A00008C4249D21D448D423CBF0024AEF82E404A
:105A1000002A6FD0047D002C00F09680012C00F04D
:105A2000F380022C00F00081032C40F08D80B1F552
:105A3000F03F40F289800222012302754377002360
:105A4000C0F82E30BEF82E40042CB4D9012380F8C3
:105A5000293036E0B3F5404FCED04FEAC30C002AD0
:105A60003FF474AFC2E740F2F634018AA14262D932
:105A7000604903EBC3038B4240F288800121017728
:105A800001F1CC31A1FB0313DB083362AEF82E2009
:105A9000002380F8283014E0A3EB0C048C4208D2D9
:105AA0009C448C4505D9042F06D80137BFB2AEF807
:105AB0002E70042F40F2A480002AC7D1012380F861
:105AC000283090F82A30002B3FF47DAF90F8283032
:105AD00023B190F82930002B7FF475AF002101220B
